{
  "contracts/MasterChefV2.sol": {
    "MasterChefV2": {
      "abi": [
        {
          "inputs": [
            {
              "internalType": "contract IMasterChef",
              "name": "_MASTER_CHEF",
              "type": "address"
            },
            {
              "internalType": "contract IERC20",
              "name": "_sushi",
              "type": "address"
            },
            {
              "internalType": "uint256",
              "name": "_MASTER_PID",
              "type": "uint256"
            }
          ],
          "stateMutability": "nonpayable",
          "type": "constructor"
        },
        {
          "anonymous": false,
          "inputs": [
            {
              "indexed": true,
              "internalType": "address",
              "name": "user",
              "type": "address"
            },
            {
              "indexed": true,
              "internalType": "uint256",
              "name": "pid",
              "type": "uint256"
            },
            {
              "indexed": false,
              "internalType": "uint256",
              "name": "amount",
              "type": "uint256"
            },
            {
              "indexed": true,
              "internalType": "address",
              "name": "to",
              "type": "address"
            }
          ],
          "name": "Deposit",
          "type": "event"
        },
        {
          "anonymous": false,
          "inputs": [
            {
              "indexed": true,
              "internalType": "address",
              "name": "user",
              "type": "address"
            },
            {
              "indexed": true,
              "internalType": "uint256",
              "name": "pid",
              "type": "uint256"
            },
            {
              "indexed": false,
              "internalType": "uint256",
              "name": "amount",
              "type": "uint256"
            },
            {
              "indexed": true,
              "internalType": "address",
              "name": "to",
              "type": "address"
            }
          ],
          "name": "EmergencyWithdraw",
          "type": "event"
        },
        {
          "anonymous": false,
          "inputs": [
            {
              "indexed": true,
              "internalType": "address",
              "name": "user",
              "type": "address"
            },
            {
              "indexed": true,
              "internalType": "uint256",
              "name": "pid",
              "type": "uint256"
            },
            {
              "indexed": false,
              "internalType": "uint256",
              "name": "amount",
              "type": "uint256"
            }
          ],
          "name": "Harvest",
          "type": "event"
        },
        {
          "anonymous": false,
          "inputs": [],
          "name": "LogInit",
          "type": "event"
        },
        {
          "anonymous": false,
          "inputs": [
            {
              "indexed": true,
              "internalType": "uint256",
              "name": "pid",
              "type": "uint256"
            },
            {
              "indexed": false,
              "internalType": "uint256",
              "name": "allocPoint",
              "type": "uint256"
            },
            {
              "indexed": true,
              "internalType": "contract IERC20",
              "name": "lpToken",
              "type": "address"
            },
            {
              "indexed": true,
              "internalType": "contract IRewarder",
              "name": "rewarder",
              "type": "address"
            }
          ],
          "name": "LogPoolAddition",
          "type": "event"
        },
        {
          "anonymous": false,
          "inputs": [
            {
              "indexed": true,
              "internalType": "uint256",
              "name": "pid",
              "type": "uint256"
            },
            {
              "indexed": false,
              "internalType": "uint256",
              "name": "allocPoint",
              "type": "uint256"
            },
            {
              "indexed": true,
              "internalType": "contract IRewarder",
              "name": "rewarder",
              "type": "address"
            },
            {
              "indexed": false,
              "internalType": "bool",
              "name": "overwrite",
              "type": "bool"
            }
          ],
          "name": "LogSetPool",
          "type": "event"
        },
        {
          "anonymous": false,
          "inputs": [
            {
              "indexed": true,
              "internalType": "uint256",
              "name": "pid",
              "type": "uint256"
            },
            {
              "indexed": false,
              "internalType": "uint64",
              "name": "lastRewardBlock",
              "type": "uint64"
            },
            {
              "indexed": false,
              "internalType": "uint256",
              "name": "lpSupply",
              "type": "uint256"
            },
            {
              "indexed": false,
              "internalType": "uint256",
              "name": "accSushiPerShare",
              "type": "uint256"
            }
          ],
          "name": "LogUpdatePool",
          "type": "event"
        },
        {
          "anonymous": false,
          "inputs": [
            {
              "indexed": true,
              "internalType": "address",
              "name": "previousOwner",
              "type": "address"
            },
            {
              "indexed": true,
              "internalType": "address",
              "name": "newOwner",
              "type": "address"
            }
          ],
          "name": "OwnershipTransferred",
          "type": "event"
        },
        {
          "anonymous": false,
          "inputs": [
            {
              "indexed": true,
              "internalType": "address",
              "name": "user",
              "type": "address"
            },
            {
              "indexed": true,
              "internalType": "uint256",
              "name": "pid",
              "type": "uint256"
            },
            {
              "indexed": false,
              "internalType": "uint256",
              "name": "amount",
              "type": "uint256"
            },
            {
              "indexed": true,
              "internalType": "address",
              "name": "to",
              "type": "address"
            }
          ],
          "name": "Withdraw",
          "type": "event"
        },
        {
          "inputs": [],
          "name": "MASTER_CHEF",
          "outputs": [
            {
              "internalType": "contract IMasterChef",
              "name": "",
              "type": "address"
            }
          ],
          "stateMutability": "view",
          "type": "function"
        },
        {
          "inputs": [],
          "name": "MASTER_PID",
          "outputs": [
            {
              "internalType": "uint256",
              "name": "",
              "type": "uint256"
            }
          ],
          "stateMutability": "view",
          "type": "function"
        },
        {
          "inputs": [],
          "name": "SUSHI",
          "outputs": [
            {
              "internalType": "contract IERC20",
              "name": "",
              "type": "address"
            }
          ],
          "stateMutability": "view",
          "type": "function"
        },
        {
          "inputs": [
            {
              "internalType": "uint256",
              "name": "allocPoint",
              "type": "uint256"
            },
            {
              "internalType": "contract IERC20",
              "name": "_lpToken",
              "type": "address"
            },
            {
              "internalType": "contract IRewarder",
              "name": "_rewarder",
              "type": "address"
            }
          ],
          "name": "add",
          "outputs": [],
          "stateMutability": "nonpayable",
          "type": "function"
        },
        {
          "inputs": [
            {
              "internalType": "bytes[]",
              "name": "calls",
              "type": "bytes[]"
            },
            {
              "internalType": "bool",
              "name": "revertOnFail",
              "type": "bool"
            }
          ],
          "name": "batch",
          "outputs": [
            {
              "internalType": "bool[]",
              "name": "successes",
              "type": "bool[]"
            },
            {
              "internalType": "bytes[]",
              "name": "results",
              "type": "bytes[]"
            }
          ],
          "stateMutability": "payable",
          "type": "function"
        },
        {
          "inputs": [],
          "name": "claimOwnership",
          "outputs": [],
          "stateMutability": "nonpayable",
          "type": "function"
        },
        {
          "inputs": [
            {
              "internalType": "uint256",
              "name": "pid",
              "type": "uint256"
            },
            {
              "internalType": "uint256",
              "name": "amount",
              "type": "uint256"
            },
            {
              "internalType": "address",
              "name": "to",
              "type": "address"
            }
          ],
          "name": "deposit",
          "outputs": [],
          "stateMutability": "nonpayable",
          "type": "function"
        },
        {
          "inputs": [
            {
              "internalType": "uint256",
              "name": "pid",
              "type": "uint256"
            },
            {
              "internalType": "address",
              "name": "to",
              "type": "address"
            }
          ],
          "name": "emergencyWithdraw",
          "outputs": [],
          "stateMutability": "nonpayable",
          "type": "function"
        },
        {
          "inputs": [
            {
              "internalType": "uint256",
              "name": "pid",
              "type": "uint256"
            },
            {
              "internalType": "address",
              "name": "to",
              "type": "address"
            }
          ],
          "name": "harvest",
          "outputs": [
            {
              "internalType": "bool",
              "name": "success",
              "type": "bool"
            }
          ],
          "stateMutability": "nonpayable",
          "type": "function"
        },
        {
          "inputs": [],
          "name": "harvestFromMasterChef",
          "outputs": [],
          "stateMutability": "nonpayable",
          "type": "function"
        },
        {
          "inputs": [
            {
              "internalType": "contract IERC20",
              "name": "dummyToken",
              "type": "address"
            }
          ],
          "name": "init",
          "outputs": [],
          "stateMutability": "nonpayable",
          "type": "function"
        },
        {
          "inputs": [
            {
              "internalType": "uint256",
              "name": "",
              "type": "uint256"
            }
          ],
          "name": "lpToken",
          "outputs": [
            {
              "internalType": "contract IERC20",
              "name": "",
              "type": "address"
            }
          ],
          "stateMutability": "view",
          "type": "function"
        },
        {
          "inputs": [
            {
              "internalType": "uint256[]",
              "name": "pids",
              "type": "uint256[]"
            }
          ],
          "name": "massUpdatePools",
          "outputs": [],
          "stateMutability": "nonpayable",
          "type": "function"
        },
        {
          "inputs": [],
          "name": "owner",
          "outputs": [
            {
              "internalType": "address",
              "name": "",
              "type": "address"
            }
          ],
          "stateMutability": "view",
          "type": "function"
        },
        {
          "inputs": [],
          "name": "pendingOwner",
          "outputs": [
            {
              "internalType": "address",
              "name": "",
              "type": "address"
            }
          ],
          "stateMutability": "view",
          "type": "function"
        },
        {
          "inputs": [
            {
              "internalType": "uint256",
              "name": "_pid",
              "type": "uint256"
            },
            {
              "internalType": "address",
              "name": "_user",
              "type": "address"
            }
          ],
          "name": "pendingSushi",
          "outputs": [
            {
              "internalType": "uint256",
              "name": "pending",
              "type": "uint256"
            }
          ],
          "stateMutability": "view",
          "type": "function"
        },
        {
          "inputs": [
            {
              "internalType": "contract IERC20",
              "name": "token",
              "type": "address"
            },
            {
              "internalType": "address",
              "name": "from",
              "type": "address"
            },
            {
              "internalType": "address",
              "name": "to",
              "type": "address"
            },
            {
              "internalType": "uint256",
              "name": "amount",
              "type": "uint256"
            },
            {
              "internalType": "uint256",
              "name": "deadline",
              "type": "uint256"
            },
            {
              "internalType": "uint8",
              "name": "v",
              "type": "uint8"
            },
            {
              "internalType": "bytes32",
              "name": "r",
              "type": "bytes32"
            },
            {
              "internalType": "bytes32",
              "name": "s",
              "type": "bytes32"
            }
          ],
          "name": "permitToken",
          "outputs": [],
          "stateMutability": "nonpayable",
          "type": "function"
        },
        {
          "inputs": [
            {
              "internalType": "uint256",
              "name": "",
              "type": "uint256"
            }
          ],
          "name": "poolInfo",
          "outputs": [
            {
              "internalType": "uint128",
              "name": "accSushiPerShare",
              "type": "uint128"
            },
            {
              "internalType": "uint64",
              "name": "lastRewardBlock",
              "type": "uint64"
            },
            {
              "internalType": "uint64",
              "name": "allocPoint",
              "type": "uint64"
            }
          ],
          "stateMutability": "view",
          "type": "function"
        },
        {
          "inputs": [],
          "name": "poolLength",
          "outputs": [
            {
              "internalType": "uint256",
              "name": "pools",
              "type": "uint256"
            }
          ],
          "stateMutability": "view",
          "type": "function"
        },
        {
          "inputs": [
            {
              "internalType": "uint256",
              "name": "",
              "type": "uint256"
            }
          ],
          "name": "rewarder",
          "outputs": [
            {
              "internalType": "contract IRewarder",
              "name": "",
              "type": "address"
            }
          ],
          "stateMutability": "view",
          "type": "function"
        },
        {
          "inputs": [
            {
              "internalType": "uint256",
              "name": "_pid",
              "type": "uint256"
            },
            {
              "internalType": "uint256",
              "name": "_allocPoint",
              "type": "uint256"
            },
            {
              "internalType": "contract IRewarder",
              "name": "_rewarder",
              "type": "address"
            },
            {
              "internalType": "bool",
              "name": "overwrite",
              "type": "bool"
            }
          ],
          "name": "set",
          "outputs": [],
          "stateMutability": "nonpayable",
          "type": "function"
        },
        {
          "inputs": [],
          "name": "sushiPerBlock",
          "outputs": [
            {
              "internalType": "uint256",
              "name": "amount",
              "type": "uint256"
            }
          ],
          "stateMutability": "view",
          "type": "function"
        },
        {
          "inputs": [
            {
              "internalType": "address",
              "name": "newOwner",
              "type": "address"
            },
            {
              "internalType": "bool",
              "name": "direct",
              "type": "bool"
            },
            {
              "internalType": "bool",
              "name": "renounce",
              "type": "bool"
            }
          ],
          "name": "transferOwnership",
          "outputs": [],
          "stateMutability": "nonpayable",
          "type": "function"
        },
        {
          "inputs": [
            {
              "internalType": "uint256",
              "name": "pid",
              "type": "uint256"
            }
          ],
          "name": "updatePool",
          "outputs": [
            {
              "components": [
                {
                  "internalType": "uint128",
                  "name": "accSushiPerShare",
                  "type": "uint128"
                },
                {
                  "internalType": "uint64",
                  "name": "lastRewardBlock",
                  "type": "uint64"
                },
                {
                  "internalType": "uint64",
                  "name": "allocPoint",
                  "type": "uint64"
                }
              ],
              "internalType": "struct MasterChefV2.PoolInfo",
              "name": "pool",
              "type": "tuple"
            }
          ],
          "stateMutability": "nonpayable",
          "type": "function"
        },
        {
          "inputs": [
            {
              "internalType": "uint256",
              "name": "",
              "type": "uint256"
            },
            {
              "internalType": "address",
              "name": "",
              "type": "address"
            }
          ],
          "name": "userInfo",
          "outputs": [
            {
              "internalType": "uint256",
              "name": "amount",
              "type": "uint256"
            },
            {
              "internalType": "int256",
              "name": "rewardDebt",
              "type": "int256"
            }
          ],
          "stateMutability": "view",
          "type": "function"
        },
        {
          "inputs": [
            {
              "internalType": "uint256",
              "name": "pid",
              "type": "uint256"
            },
            {
              "internalType": "uint256",
              "name": "amount",
              "type": "uint256"
            },
            {
              "internalType": "address",
              "name": "to",
              "type": "address"
            }
          ],
          "name": "withdraw",
          "outputs": [],
          "stateMutability": "nonpayable",
          "type": "function"
        }
      ],
      "devdoc": {
        "kind": "dev",
        "methods": {
          "add(uint256,address,address)": {
            "params": {
              "_lpToken": "Address of the LP ERC-20 token.",
              "_rewarder": "Address of the rewarder delegate.",
              "allocPoint": "AP of the new pool."
            }
          },
          "constructor": {
            "params": {
              "_MASTER_CHEF": "The SushiSwap MCV1 contract address.",
              "_MASTER_PID": "The pool ID of the dummy token on the base MCV1 contract.",
              "_sushi": "The SUSHI token contract address."
            }
          },
          "deposit(uint256,uint256,address)": {
            "params": {
              "amount": "LP token amount to deposit.",
              "pid": "The index of the pool. See `poolInfo`.",
              "to": "The receiver of `amount` deposit benefit."
            }
          },
          "emergencyWithdraw(uint256,address)": {
            "params": {
              "pid": "The index of the pool. See `poolInfo`.",
              "to": "Receiver of the LP tokens."
            }
          },
          "harvest(uint256,address)": {
            "params": {
              "pid": "The index of the pool. See `poolInfo`.",
              "to": "Receiver of SUSHI rewards."
            },
            "returns": {
              "success": "Returns bool indicating success of rewarder delegate call."
            }
          },
          "init(address)": {
            "params": {
              "dummyToken": "The address of the ERC-20 token to deposit into MCV1."
            }
          },
          "massUpdatePools(uint256[])": {
            "params": {
              "pids": "Pool IDs of all to be updated. Make sure to update all active pools."
            }
          },
          "pendingSushi(uint256,address)": {
            "params": {
              "_pid": "The index of the pool. See `poolInfo`.",
              "_user": "Address of user."
            },
            "returns": {
              "pending": "SUSHI reward for a given user."
            }
          },
          "set(uint256,uint256,address,bool)": {
            "params": {
              "_allocPoint": "New AP of the pool.",
              "_pid": "The index of the pool. See `poolInfo`.",
              "_rewarder": "Address of the rewarder delegate.",
              "overwrite": "True if _rewarder should be `set`. Otherwise `_rewarder` is ignored."
            }
          },
          "updatePool(uint256)": {
            "params": {
              "pid": "The index of the pool. See `poolInfo`."
            },
            "returns": {
              "pool": "Returns the pool that was updated."
            }
          },
          "withdraw(uint256,uint256,address)": {
            "params": {
              "amount": "LP token amount to withdraw.",
              "pid": "The index of the pool. See `poolInfo`.",
              "to": "Receiver of the LP tokens."
            }
          }
        },
        "stateVariables": {
          "totalAllocPoint": {
            "details": "Total allocation points. Must be the sum of all allocation points in all pools."
          }
        },
        "version": 1
      },
      "evm": {
        "bytecode": {
          "linkReferences": {},
          "object": "60e06040523480156200001157600080fd5b506040516200297738038062002977833981016040819052620000349162000097565b600080546001600160a01b0319163390811782556040519091907f8be0079c531659141344cd1fd0a4f28419497f9722a3daafe3b4186f6b6457e0908290a36001600160601b0319606093841b81166080529190921b1660a05260c052620000f7565b600080600060608486031215620000ac578283fd5b8351620000b981620000de565b6020850151909350620000cc81620000de565b80925050604084015190509250925092565b6001600160a01b0381168114620000f457600080fd5b50565b60805160601c60a05160601c60c0516128206200015760003980610c765280610e62528061116d528061178a52508061078e52806114c2525080610bb55280610c495280610e3552806116b3528061175d52806119d152506128206000f3fe6080604052600436106101815760003560e01c806378ed5d1f116100d1578063ab560e101161008a578063c346253d11610064578063c346253d14610455578063d2423b5114610475578063e30c397814610496578063edd8b170146104ab57610181565b8063ab560e101461040b578063ab7de09814610420578063b0bcf42a1461044057610181565b806378ed5d1f1461033b5780637c516e941461036857806388bba42f146103885780638da5cb5b146103a85780638dbdbe6d146103bd57806393f1a40b146103dd57610181565b806319ab453c1161013e5780634f70b15a116101185780634f70b15a146102c457806351eb05a6146102d957806357a5b58c1461030657806361621aaa1461032657610181565b806319ab453c1461026f5780632f940c701461028f5780634e71e0c8146102af57610181565b8063078dfbe714610186578063081e3eda146101a85780630ad58d2f146101d35780631526fe27146101f357806318fccc7614610222578063195426ec1461024f575b600080fd5b34801561019257600080fd5b506101a66101a1366004611e57565b6104c0565b005b3480156101b457600080fd5b506101bd6105af565b6040516101ca91906126be565b60405180910390f35b3480156101df57600080fd5b506101a66101ee36600461215a565b6105b5565b3480156101ff57600080fd5b5061021361020e3660046120c5565b6106b2565b6040516101ca93929190612694565b34801561022e57600080fd5b5061024261023d3660046120f5565b6106f4565b6040516101ca9190612354565b34801561025b57600080fd5b506101bd61026a3660046120f5565b6108e1565b34801561027b57600080fd5b506101a661028a366004611f45565b610ade565b34801561029b57600080fd5b506101a66102aa3660046120f5565b610cff565b3480156102bb57600080fd5b506101a6610d91565b3480156102d057600080fd5b506101a6610e1e565b3480156102e557600080fd5b506102f96102f43660046120c5565b610ec1565b6040516101ca919061265b565b34801561031257600080fd5b506101a6610321366004611eea565b61113b565b34801561033257600080fd5b506101bd61116b565b34801561034757600080fd5b5061035b6103563660046120c5565b61118f565b6040516101ca9190612228565b34801561037457600080fd5b506101a6610383366004611f61565b6111b6565b34801561039457600080fd5b506101a66103a3366004612187565b61122a565b3480156103b457600080fd5b5061035b611397565b3480156103c957600080fd5b506101a66103d836600461215a565b6113a6565b3480156103e957600080fd5b506103fd6103f83660046120f5565b61149c565b6040516101ca9291906126f6565b34801561041757600080fd5b5061035b6114c0565b34801561042c57600080fd5b506101a661043b366004612124565b6114e4565b34801561044c57600080fd5b506101bd6116af565b34801561046157600080fd5b5061035b6104703660046120c5565b611823565b610488610483366004611ea1565b611830565b6040516101ca9291906122ba565b3480156104a257600080fd5b5061035b6119c0565b3480156104b757600080fd5b5061035b6119cf565b6000546001600160a01b031633146104f35760405162461bcd60e51b81526004016104ea9061250a565b60405180910390fd5b811561058e576001600160a01b03831615158061050d5750805b6105295760405162461bcd60e51b81526004016104ea9061246d565b600080546040516001600160a01b03808716939216917f8be0079c531659141344cd1fd0a4f28419497f9722a3daafe3b4186f6b6457e091a3600080546001600160a01b0385166001600160a01b0319918216179091556001805490911690556105aa565b600180546001600160a01b0319166001600160a01b0385161790555b505050565b60025490565b6105bd611def565b6105c684610ec1565b600085815260056020908152604080832033845290915290208151919250906106189064e8d4a51000906106049087906001600160801b03166119f3565b8161060b57fe5b6001840154919004611a30565b600182015580546106299085611a7d565b816000018190555061065f83856003888154811061064357fe5b6000918252602090912001546001600160a01b03169190611aa0565b826001600160a01b031685336001600160a01b03167f8166bf25f8a2b7ed3c85049207da4358d16edbed977d23fa2ee6f0dde3ec2132876040516106a391906126be565b60405180910390a45050505050565b600281815481106106bf57fe5b6000918252602090912001546001600160801b03811691506001600160401b03600160801b8204811691600160c01b90041683565b60006106fe611def565b61070784610ec1565b6000858152600560209081526040808320338452909152812082518154939450909264e8d4a510009161074391906001600160801b03166119f3565b8161074a57fe5b049050600061076e610769846001015484611a3090919063ffffffff16565b611b8e565b90508061077a57600094505b600183018290556107b56001600160a01b037f0000000000000000000000000000000000000000000000000000000000000000168783611aa0565b6000600488815481106107c457fe5b6000918252602090912001546001600160a01b03169050801561089457806001600160a01b03166113885a0363bb6cc2ef60e01b8a338660405160240161080d939291906126c7565b60408051601f198184030181529181526020820180516001600160e01b03166001600160e01b031990941693909317909252905161084b919061220c565b60006040518083038160008787f1925050503d8060008114610889576040519150601f19603f3d011682016040523d82523d6000602084013e61088e565b606091505b50909650505b87336001600160a01b03167f71bab65ced2e5750775a0613be067df48ef06cf92a496ebf7663ae0660924954846040516108ce91906126be565b60405180910390a3505050505092915050565b60006108eb611def565b600284815481106108f857fe5b600091825260208083206040805160608101825291909301546001600160801b0380821683526001600160401b03600160801b8304811684860152600160c01b90920490911682850152888552600583528385206001600160a01b038916865290925291832082516003805494965091949216928890811061097657fe5b6000918252602090912001546040516370a0823160e01b81526001600160a01b03909116906370a08231906109af903090600401612228565b60206040518083038186803b1580156109c757600080fd5b505afa1580156109db573d6000803e3d6000fd5b505050506040513d601f19601f820116820180604052508101906109ff91906120dd565b905083602001516001600160401b031643118015610a1c57508015155b15610aa5576000610a4385602001516001600160401b031643611a7d90919063ffffffff16565b90506000600654610a7387604001516001600160401b0316610a6d610a666116af565b86906119f3565b906119f3565b81610a7a57fe5b049050610aa083610a908364e8d4a510006119f3565b81610a9757fe5b86919004611bb4565b935050505b60018301548354610ad3916107699164e8d4a5100090610ac590876119f3565b81610acc57fe5b0490611a30565b979650505050505050565b6040516370a0823160e01b81526000906001600160a01b038316906370a0823190610b0d903390600401612228565b60206040518083038186803b158015610b2557600080fd5b505afa158015610b39573d6000803e3d6000fd5b505050506040513d601f19601f82011682018060405250810190610b5d91906120dd565b905080610b7c5760405162461bcd60e51b81526004016104ea906123fd565b610b916001600160a01b038316333084611bd7565b60405163095ea7b360e01b81526001600160a01b0383169063095ea7b390610bdf907f00000000000000000000000000000000000000000000000000000000000000009085906004016122a1565b602060405180830381600087803b158015610bf957600080fd5b505af1158015610c0d573d6000803e3d6000fd5b505050506040513d601f19601f82011682018060405250810190610c319190611f29565b50604051631c57762b60e31b81526001600160a01b037f0000000000000000000000000000000000000000000000000000000000000000169063e2bbb15890610ca0907f00000000000000000000000000000000000000000000000000000000000000009085906004016126f6565b600060405180830381600087803b158015610cba57600080fd5b505af1158015610cce573d6000803e3d6000fd5b50506040517f98a9bd3b7a617581fc53b1e2992534e0e0cb5091c9d44aa1a7fc978f706caa83925060009150a15050565b600082815260056020908152604080832033845290915281208054828255600182019290925560038054919291610d3f9185918491908890811061064357fe5b826001600160a01b031684336001600160a01b03167f2cac5e20e1541d836381527a43f651851e302817b71dc8e810284e69210c1c6b84604051610d8391906126be565b60405180910390a450505050565b6001546001600160a01b0316338114610dbc5760405162461bcd60e51b81526004016104ea9061253f565b600080546040516001600160a01b03808516939216917f8be0079c531659141344cd1fd0a4f28419497f9722a3daafe3b4186f6b6457e091a3600080546001600160a01b039092166001600160a01b0319928316179055600180549091169055565b604051631c57762b60e31b81526001600160a01b037f0000000000000000000000000000000000000000000000000000000000000000169063e2bbb15890610e8d907f0000000000000000000000000000000000000000000000000000000000000000906000906004016126f6565b600060405180830381600087803b158015610ea757600080fd5b505af1158015610ebb573d6000803e3d6000fd5b50505050565b610ec9611def565b60028281548110610ed657fe5b60009182526020918290206040805160608101825292909101546001600160801b03811683526001600160401b03600160801b82048116948401859052600160c01b9091041690820152915043111561113657600060038381548110610f3857fe5b6000918252602090912001546040516370a0823160e01b81526001600160a01b03909116906370a0823190610f71903090600401612228565b60206040518083038186803b158015610f8957600080fd5b505afa158015610f9d573d6000803e3d6000fd5b505050506040513d601f19601f82011682018060405250810190610fc191906120dd565b9050801561105a576000610feb83602001516001600160401b031643611a7d90919063ffffffff16565b9050600060065461100e85604001516001600160401b0316610a6d610a666116af565b8161101557fe5b04905061104c61103b8461102e8464e8d4a510006119f3565b8161103557fe5b04611cc8565b85516001600160801b031690611cf1565b6001600160801b0316845250505b61106343611d20565b6001600160401b03166020830152600280548391908590811061108257fe5b6000918252602091829020835191018054848401516040958601516001600160801b03199092166001600160801b039094169390931767ffffffffffffffff60801b1916600160801b6001600160401b0394851602176001600160c01b0316600160c01b93909116929092029190911790558301518351915185927f0fc9545022a542541ad085d091fb09a2ab36fee366a4576ab63714ea907ad3539261112c9290918691612704565b60405180910390a2505b919050565b8060005b81811015610ebb5761116284848381811061115657fe5b90506020020135610ec1565b5060010161113f565b7f000000000000000000000000000000000000000000000000000000000000000081565b6003818154811061119c57fe5b6000918252602090912001546001600160a01b0316905081565b60405163d505accf60e01b81526001600160a01b0389169063d505accf906111ee908a908a908a908a908a908a908a90600401612260565b600060405180830381600087803b15801561120857600080fd5b505af115801561121c573d6000803e3d6000fd5b505050505050505050505050565b6000546001600160a01b031633146112545760405162461bcd60e51b81526004016104ea9061250a565b6112938361128d6002878154811061126857fe5b60009182526020909120015460065490600160c01b90046001600160401b0316611a7d565b90611bb4565b60065561129f83611d20565b600285815481106112ac57fe5b9060005260206000200160000160186101000a8154816001600160401b0302191690836001600160401b0316021790555080156113205781600485815481106112f157fe5b9060005260206000200160006101000a8154816001600160a01b0302191690836001600160a01b031602179055505b8061134c576004848154811061133257fe5b6000918252602090912001546001600160a01b031661134e565b815b6001600160a01b0316847f95895a6ab1df54420d241b55243258a33e61b2194db66c1179ec521aae8e186585846040516113899291906126e6565b60405180910390a350505050565b6000546001600160a01b031681565b6113ae611def565b6113b784610ec1565b60008581526005602090815260408083206001600160a01b038716845290915290208054919250906113e99085611bb4565b815581516114209064e8d4a510009061140c9087906001600160801b03166119f3565b8161141357fe5b6001840154919004611d49565b81600101819055506114583330866003898154811061143b57fe5b6000918252602090912001546001600160a01b0316929190611bd7565b826001600160a01b031685336001600160a01b03167f02d7e648dd130fc184d383e55bb126ac4c9c60e8f94bf05acdf557ba2d540b47876040516106a391906126be565b60056020908152600092835260408084209091529082529020805460019091015482565b7f000000000000000000000000000000000000000000000000000000000000000081565b6000546001600160a01b0316331461150e5760405162461bcd60e51b81526004016104ea9061250a565b600654439061151d9085611bb4565b6006556003805460018181019092557fc2575a0e9e593c00f959f8c92f12db2869c3395a3b0502d05e2516446f71f85b0180546001600160a01b038087166001600160a01b03199283161790925560048054938401815560009081527f8a35acfbc15ff81a39ae7d344fd709f28e8600b4aa8c65c6b64bfe7fe36bd19b9093018054928616929091169190911790556040805160608101909152908152600290602081016115ca84611d20565b6001600160401b031681526020016115e187611d20565b6001600160401b039081169091528254600181810185556000948552602094859020845192018054958501516040909501518416600160c01b026001600160c01b0395909416600160801b0267ffffffffffffffff60801b196001600160801b039094166001600160801b0319909716969096179290921694909417929092161790556003546001600160a01b03808516929086169161168091611a7d565b7f81ee0f8c5c46e2cb41984886f77a84181724abb86c32a5f6de539b07509d45e587604051610d8391906126be565b60007f00000000000000000000000000000000000000000000000000000000000000006001600160a01b03166317caf6f16040518163ffffffff1660e01b815260040160206040518083038186803b15801561170a57600080fd5b505afa15801561171e573d6000803e3d6000fd5b505050506040513d601f19601f8201168201806040525081019061174291906120dd565b604051631526fe2760e01b8152611816906001600160a01b037f00000000000000000000000000000000000000000000000000000000000000001690631526fe27906117b2907f0000000000000000000000000000000000000000000000000000000000000000906004016126be565b60806040518083038186803b1580156117ca57600080fd5b505afa1580156117de573d6000803e3d6000fd5b505050506040513d601f19601f820116820180604052508101906118029190612073565b6020015168056bc75e2d63100000906119f3565b8161181d57fe5b04905090565b6004818154811061119c57fe5b606080836001600160401b038111801561184957600080fd5b50604051908082528060200260200182016040528015611873578160200160208202803683370190505b509150836001600160401b038111801561188c57600080fd5b506040519080825280602002602001820160405280156118c057816020015b60608152602001906001900390816118ab5790505b50905060005b848110156119b75760006060308888858181106118df57fe5b90506020028101906118f1919061272e565b6040516118ff9291906121fc565b600060405180830381855af49150503d806000811461193a576040519150601f19603f3d011682016040523d82523d6000602084013e61193f565b606091505b5091509150818061194e575085155b61195782611d8f565b906119755760405162461bcd60e51b81526004016104ea919061235f565b508185848151811061198357fe5b602002602001019015159081151581525050808484815181106119a257fe5b602090810291909101015250506001016118c6565b50935093915050565b6001546001600160a01b031681565b7f000000000000000000000000000000000000000000000000000000000000000081565b6000811580611a0e57505080820282828281611a0b57fe5b04145b611a2a5760405162461bcd60e51b81526004016104ea90612624565b92915050565b6000818303818312801590611a455750838113155b80611a5a5750600083128015611a5a57508381135b611a765760405162461bcd60e51b81526004016104ea906125ab565b9392505050565b80820382811115611a2a5760405162461bcd60e51b81526004016104ea90612372565b60006060846001600160a01b031663a9059cbb8585604051602401611ac69291906122a1565b6040516020818303038152906040529060e01b6020820180516001600160e01b038381831617835250505050604051611aff919061220c565b6000604051808303816000865af19150503d8060008114611b3c576040519150601f19603f3d011682016040523d82523d6000602084013e611b41565b606091505b5091509150818015611b6b575080511580611b6b575080806020019051810190611b6b9190611f29565b611b875760405162461bcd60e51b81526004016104ea906123c6565b5050505050565b600080821215611bb05760405162461bcd60e51b81526004016104ea906123a1565b5090565b81810181811015611a2a5760405162461bcd60e51b81526004016104ea906124d3565b60006060856001600160a01b03166323b872dd868686604051602401611bff9392919061223c565b6040516020818303038152906040529060e01b6020820180516001600160e01b038381831617835250505050604051611c38919061220c565b6000604051808303816000865af19150503d8060008114611c75576040519150601f19603f3d011682016040523d82523d6000602084013e611c7a565b606091505b5091509150818015611ca4575080511580611ca4575080806020019051810190611ca49190611f29565b611cc05760405162461bcd60e51b81526004016104ea906125ef565b505050505050565b60006001600160801b03821115611bb05760405162461bcd60e51b81526004016104ea9061249c565b8181016001600160801b038083169082161015611a2a5760405162461bcd60e51b81526004016104ea906124d3565b60006001600160401b03821115611bb05760405162461bcd60e51b81526004016104ea90612574565b6000828201818312801590611d5e5750838112155b80611d735750600083128015611d7357508381125b611a765760405162461bcd60e51b81526004016104ea9061242c565b6060604482511015611dd5575060408051808201909152601d81527f5472616e73616374696f6e2072657665727465642073696c656e746c790000006020820152611136565b60048201915081806020019051810190611a2a9190611fe8565b604080516060810182526000808252602082018190529181019190915290565b60008083601f840112611e20578182fd5b5081356001600160401b03811115611e36578182fd5b6020830191508360208083028501011115611e5057600080fd5b9250929050565b600080600060608486031215611e6b578283fd5b8335611e76816127c4565b92506020840135611e86816127dc565b91506040840135611e96816127dc565b809150509250925092565b600080600060408486031215611eb5578283fd5b83356001600160401b03811115611eca578384fd5b611ed686828701611e0f565b9094509250506020840135611e96816127dc565b60008060208385031215611efc578182fd5b82356001600160401b03811115611f11578283fd5b611f1d85828601611e0f565b90969095509350505050565b600060208284031215611f3a578081fd5b8151611a76816127dc565b600060208284031215611f56578081fd5b8135611a76816127c4565b600080600080600080600080610100898b031215611f7d578384fd5b8835611f88816127c4565b97506020890135611f98816127c4565b96506040890135611fa8816127c4565b9550606089013594506080890135935060a089013560ff81168114611fcb578384fd5b979a969950949793969295929450505060c08201359160e0013590565b600060208284031215611ff9578081fd5b81516001600160401b038082111561200f578283fd5b818401915084601f830112612022578283fd5b815181811115612030578384fd5b612043601f8201601f1916602001612772565b9150808252856020828501011115612059578384fd5b61206a816020840160208601612798565b50949350505050565b600060808284031215612084578081fd5b61208e6080612772565b8251612099816127c4565b808252506020830151602082015260408301516040820152606083015160608201528091505092915050565b6000602082840312156120d6578081fd5b5035919050565b6000602082840312156120ee578081fd5b5051919050565b60008060408385031215612107578182fd5b823591506020830135612119816127c4565b809150509250929050565b600080600060608486031215612138578081fd5b83359250602084013561214a816127c4565b91506040840135611e96816127c4565b60008060006060848603121561216e578081fd5b83359250602084013591506040840135611e96816127c4565b6000806000806080858703121561219c578182fd5b843593506020850135925060408501356121b5816127c4565b915060608501356121c5816127dc565b939692955090935050565b600081518084526121e8816020860160208601612798565b601f01601f19169290920160200192915050565b6000828483379101908152919050565b6000825161221e818460208701612798565b9190910192915050565b6001600160a01b0391909116815260200190565b6001600160a01b039384168152919092166020820152604081019190915260600190565b6001600160a01b0397881681529590961660208601526040850193909352606084019190915260ff16608083015260a082015260c081019190915260e00190565b6001600160a01b03929092168252602082015260400190565b604080825283519082018190526000906020906060840190828701845b828110156122f55781511515845292840192908401906001016122d7565b5050508381038285015280855161230c81846126be565b91508192508381028201848801865b838110156123455785830385526123338383516121d0565b9487019492509086019060010161231b565b50909998505050505050505050565b901515815260200190565b600060208252611a7660208301846121d0565b602080825260159082015274426f72696e674d6174683a20556e646572666c6f7760581b604082015260600190565b6020808252600b908201526a0496e7465676572203c20360ac1b604082015260600190565b6020808252601c908201527f426f72696e6745524332303a205472616e73666572206661696c656400000000604082015260600190565b602080825260159082015274042616c616e6365206d75737420657863656564203605c1b604082015260600190565b60208082526021908201527f5369676e6564536166654d6174683a206164646974696f6e206f766572666c6f6040820152607760f81b606082015260800190565b6020808252601590820152744f776e61626c653a207a65726f206164647265737360581b604082015260600190565b6020808252601c908201527f426f72696e674d6174683a2075696e74313238204f766572666c6f7700000000604082015260600190565b60208082526018908201527f426f72696e674d6174683a20416464204f766572666c6f770000000000000000604082015260600190565b6020808252818101527f4f776e61626c653a2063616c6c6572206973206e6f7420746865206f776e6572604082015260600190565b6020808252818101527f4f776e61626c653a2063616c6c657220213d2070656e64696e67206f776e6572604082015260600190565b6020808252601b908201527f426f72696e674d6174683a2075696e743634204f766572666c6f770000000000604082015260600190565b60208082526024908201527f5369676e6564536166654d6174683a207375627472616374696f6e206f766572604082015263666c6f7760e01b606082015260800190565b6020808252818101527f426f72696e6745524332303a205472616e7366657246726f6d206661696c6564604082015260600190565b60208082526018908201527f426f72696e674d6174683a204d756c204f766572666c6f770000000000000000604082015260600190565b81516001600160801b031681526020808301516001600160401b0390811691830191909152604092830151169181019190915260600190565b6001600160801b039390931683526001600160401b03918216602084015216604082015260600190565b90815260200190565b9283526001600160a01b03919091166020830152604082015260600190565b9182521515602082015260400190565b918252602082015260400190565b6001600160401b0393909316835260208301919091526001600160801b0316604082015260600190565b6000808335601e19843603018112612744578283fd5b8301803591506001600160401b0382111561275d578283fd5b602001915036819003821315611e5057600080fd5b6040518181016001600160401b038111828210171561279057600080fd5b604052919050565b60005b838110156127b357818101518382015260200161279b565b83811115610ebb5750506000910152565b6001600160a01b03811681146127d957600080fd5b50565b80151581146127d957600080fdfea264697066735822122006eec5e2b18772f9258371864b8f0d18d84f299cae899a09c3267ad3412256a464736f6c634300060c0033",
          "opcodes": "PUSH1 0xE0 PUSH1 0x40 MSTORE CALLVALUE DUP1 ISZERO PUSH3 0x11 JUMPI PUSH1 0x0 DUP1 REVERT JUMPDEST POP PUSH1 0x40 MLOAD PUSH3 0x2977 CODESIZE SUB DUP1 PUSH3 0x2977 DUP4 CODECOPY DUP2 ADD PUSH1 0x40 DUP2 SWAP1 MSTORE PUSH3 0x34 SWAP2 PUSH3 0x97 JUMP JUMPDEST PUSH1 0x0 DUP1 SLOAD PUSH1 0x1 PUSH1 0x1 PUSH1 0xA0 SHL SUB NOT AND CALLER SWAP1 DUP2 OR DUP3 SSTORE PUSH1 0x40 MLOAD SWAP1 SWAP2 SWAP1 PUSH32 0x8BE0079C531659141344CD1FD0A4F28419497F9722A3DAAFE3B4186F6B6457E0 SWAP1 DUP3 SWAP1 LOG3 PUSH1 0x1 PUSH1 0x1 PUSH1 0x60 SHL SUB NOT PUSH1 0x60 SWAP4 DUP5 SHL DUP2 AND PUSH1 0x80 MSTORE SWAP2 SWAP1 SWAP3 SHL AND PUSH1 0xA0 MSTORE PUSH1 0xC0 MSTORE PUSH3 0xF7 JUMP JUMPDEST PUSH1 0x0 DUP1 PUSH1 0x0 PUSH1 0x60 DUP5 DUP7 SUB SLT ISZERO PUSH3 0xAC JUMPI DUP3 DUP4 REVERT JUMPDEST DUP4 MLOAD PUSH3 0xB9 DUP2 PUSH3 0xDE JUMP JUMPDEST PUSH1 0x20 DUP6 ADD MLOAD SWAP1 SWAP4 POP PUSH3 0xCC DUP2 PUSH3 0xDE JUMP JUMPDEST DUP1 SWAP3 POP POP PUSH1 0x40 DUP5 ADD MLOAD SWAP1 POP SWAP3 POP SWAP3 POP SWAP3 JUMP JUMPDEST PUSH1 0x1 PUSH1 0x1 PUSH1 0xA0 SHL SUB DUP2 AND DUP2 EQ PUSH3 0xF4 JUMPI PUSH1 0x0 DUP1 REVERT JUMPDEST POP JUMP JUMPDEST PUSH1 0x80 MLOAD PUSH1 0x60 SHR PUSH1 0xA0 MLOAD PUSH1 0x60 SHR PUSH1 0xC0 MLOAD PUSH2 0x2820 PUSH3 0x157 PUSH1 0x0 CODECOPY DUP1 PUSH2 0xC76 MSTORE DUP1 PUSH2 0xE62 MSTORE DUP1 PUSH2 0x116D MSTORE DUP1 PUSH2 0x178A MSTORE POP DUP1 PUSH2 0x78E MSTORE DUP1 PUSH2 0x14C2 MSTORE POP DUP1 PUSH2 0xBB5 MSTORE DUP1 PUSH2 0xC49 MSTORE DUP1 PUSH2 0xE35 MSTORE DUP1 PUSH2 0x16B3 MSTORE DUP1 PUSH2 0x175D MSTORE DUP1 PUSH2 0x19D1 MSTORE POP PUSH2 0x2820 PUSH1 0x0 RETURN INVALID PUSH1 0x80 PUSH1 0x40 MSTORE PUSH1 0x4 CALLDATASIZE LT PUSH2 0x181 JUMPI PUSH1 0x0 CALLDATALOAD PUSH1 0xE0 SHR DUP1 PUSH4 0x78ED5D1F GT PUSH2 0xD1 JUMPI DUP1 PUSH4 0xAB560E10 GT PUSH2 0x8A JUMPI DUP1 PUSH4 0xC346253D GT PUSH2 0x64 JUMPI DUP1 PUSH4 0xC346253D EQ PUSH2 0x455 JUMPI DUP1 PUSH4 0xD2423B51 EQ PUSH2 0x475 JUMPI DUP1 PUSH4 0xE30C3978 EQ PUSH2 0x496 JUMPI DUP1 PUSH4 0xEDD8B170 EQ PUSH2 0x4AB JUMPI PUSH2 0x181 JUMP JUMPDEST DUP1 PUSH4 0xAB560E10 EQ PUSH2 0x40B JUMPI DUP1 PUSH4 0xAB7DE098 EQ PUSH2 0x420 JUMPI DUP1 PUSH4 0xB0BCF42A EQ PUSH2 0x440 JUMPI PUSH2 0x181 JUMP JUMPDEST DUP1 PUSH4 0x78ED5D1F EQ PUSH2 0x33B JUMPI DUP1 PUSH4 0x7C516E94 EQ PUSH2 0x368 JUMPI DUP1 PUSH4 0x88BBA42F EQ PUSH2 0x388 JUMPI DUP1 PUSH4 0x8DA5CB5B EQ PUSH2 0x3A8 JUMPI DUP1 PUSH4 0x8DBDBE6D EQ PUSH2 0x3BD JUMPI DUP1 PUSH4 0x93F1A40B EQ PUSH2 0x3DD JUMPI PUSH2 0x181 JUMP JUMPDEST DUP1 PUSH4 0x19AB453C GT PUSH2 0x13E JUMPI DUP1 PUSH4 0x4F70B15A GT PUSH2 0x118 JUMPI DUP1 PUSH4 0x4F70B15A EQ PUSH2 0x2C4 JUMPI DUP1 PUSH4 0x51EB05A6 EQ PUSH2 0x2D9 JUMPI DUP1 PUSH4 0x57A5B58C EQ PUSH2 0x306 JUMPI DUP1 PUSH4 0x61621AAA EQ PUSH2 0x326 JUMPI PUSH2 0x181 JUMP JUMPDEST DUP1 PUSH4 0x19AB453C EQ PUSH2 0x26F JUMPI DUP1 PUSH4 0x2F940C70 EQ PUSH2 0x28F JUMPI DUP1 PUSH4 0x4E71E0C8 EQ PUSH2 0x2AF JUMPI PUSH2 0x181 JUMP JUMPDEST DUP1 PUSH4 0x78DFBE7 EQ PUSH2 0x186 JUMPI DUP1 PUSH4 0x81E3EDA EQ PUSH2 0x1A8 JUMPI DUP1 PUSH4 0xAD58D2F EQ PUSH2 0x1D3 JUMPI DUP1 PUSH4 0x1526FE27 EQ PUSH2 0x1F3 JUMPI DUP1 PUSH4 0x18FCCC76 EQ PUSH2 0x222 JUMPI DUP1 PUSH4 0x195426EC EQ PUSH2 0x24F JUMPI JUMPDEST PUSH1 0x0 DUP1 REVERT JUMPDEST CALLVALUE DUP1 ISZERO PUSH2 0x192 JUMPI PUSH1 0x0 DUP1 REVERT JUMPDEST POP PUSH2 0x1A6 PUSH2 0x1A1 CALLDATASIZE PUSH1 0x4 PUSH2 0x1E57 JUMP JUMPDEST PUSH2 0x4C0 JUMP JUMPDEST STOP JUMPDEST CALLVALUE DUP1 ISZERO PUSH2 0x1B4 JUMPI PUSH1 0x0 DUP1 REVERT JUMPDEST POP PUSH2 0x1BD PUSH2 0x5AF JUMP JUMPDEST PUSH1 0x40 MLOAD PUSH2 0x1CA SWAP2 SWAP1 PUSH2 0x26BE JUMP JUMPDEST PUSH1 0x40 MLOAD DUP1 SWAP2 SUB SWAP1 RETURN JUMPDEST CALLVALUE DUP1 ISZERO PUSH2 0x1DF JUMPI PUSH1 0x0 DUP1 REVERT JUMPDEST POP PUSH2 0x1A6 PUSH2 0x1EE CALLDATASIZE PUSH1 0x4 PUSH2 0x215A JUMP JUMPDEST PUSH2 0x5B5 JUMP JUMPDEST CALLVALUE DUP1 ISZERO PUSH2 0x1FF JUMPI PUSH1 0x0 DUP1 REVERT JUMPDEST POP PUSH2 0x213 PUSH2 0x20E CALLDATASIZE PUSH1 0x4 PUSH2 0x20C5 JUMP JUMPDEST PUSH2 0x6B2 JUMP JUMPDEST PUSH1 0x40 MLOAD PUSH2 0x1CA SWAP4 SWAP3 SWAP2 SWAP1 PUSH2 0x2694 JUMP JUMPDEST CALLVALUE DUP1 ISZERO PUSH2 0x22E JUMPI PUSH1 0x0 DUP1 REVERT JUMPDEST POP PUSH2 0x242 PUSH2 0x23D CALLDATASIZE PUSH1 0x4 PUSH2 0x20F5 JUMP JUMPDEST PUSH2 0x6F4 JUMP JUMPDEST PUSH1 0x40 MLOAD PUSH2 0x1CA SWAP2 SWAP1 PUSH2 0x2354 JUMP JUMPDEST CALLVALUE DUP1 ISZERO PUSH2 0x25B JUMPI PUSH1 0x0 DUP1 REVERT JUMPDEST POP PUSH2 0x1BD PUSH2 0x26A CALLDATASIZE PUSH1 0x4 PUSH2 0x20F5 JUMP JUMPDEST PUSH2 0x8E1 JUMP JUMPDEST CALLVALUE DUP1 ISZERO PUSH2 0x27B JUMPI PUSH1 0x0 DUP1 REVERT JUMPDEST POP PUSH2 0x1A6 PUSH2 0x28A CALLDATASIZE PUSH1 0x4 PUSH2 0x1F45 JUMP JUMPDEST PUSH2 0xADE JUMP JUMPDEST CALLVALUE DUP1 ISZERO PUSH2 0x29B JUMPI PUSH1 0x0 DUP1 REVERT JUMPDEST POP PUSH2 0x1A6 PUSH2 0x2AA CALLDATASIZE PUSH1 0x4 PUSH2 0x20F5 JUMP JUMPDEST PUSH2 0xCFF JUMP JUMPDEST CALLVALUE DUP1 ISZERO PUSH2 0x2BB JUMPI PUSH1 0x0 DUP1 REVERT JUMPDEST POP PUSH2 0x1A6 PUSH2 0xD91 JUMP JUMPDEST CALLVALUE DUP1 ISZERO PUSH2 0x2D0 JUMPI PUSH1 0x0 DUP1 REVERT JUMPDEST POP PUSH2 0x1A6 PUSH2 0xE1E JUMP JUMPDEST CALLVALUE DUP1 ISZERO PUSH2 0x2E5 JUMPI PUSH1 0x0 DUP1 REVERT JUMPDEST POP PUSH2 0x2F9 PUSH2 0x2F4 CALLDATASIZE PUSH1 0x4 PUSH2 0x20C5 JUMP JUMPDEST PUSH2 0xEC1 JUMP JUMPDEST PUSH1 0x40 MLOAD PUSH2 0x1CA SWAP2 SWAP1 PUSH2 0x265B JUMP JUMPDEST CALLVALUE DUP1 ISZERO PUSH2 0x312 JUMPI PUSH1 0x0 DUP1 REVERT JUMPDEST POP PUSH2 0x1A6 PUSH2 0x321 CALLDATASIZE PUSH1 0x4 PUSH2 0x1EEA JUMP JUMPDEST PUSH2 0x113B JUMP JUMPDEST CALLVALUE DUP1 ISZERO PUSH2 0x332 JUMPI PUSH1 0x0 DUP1 REVERT JUMPDEST POP PUSH2 0x1BD PUSH2 0x116B JUMP JUMPDEST CALLVALUE DUP1 ISZERO PUSH2 0x347 JUMPI PUSH1 0x0 DUP1 REVERT JUMPDEST POP PUSH2 0x35B PUSH2 0x356 CALLDATASIZE PUSH1 0x4 PUSH2 0x20C5 JUMP JUMPDEST PUSH2 0x118F JUMP JUMPDEST PUSH1 0x40 MLOAD PUSH2 0x1CA SWAP2 SWAP1 PUSH2 0x2228 JUMP JUMPDEST CALLVALUE DUP1 ISZERO PUSH2 0x374 JUMPI PUSH1 0x0 DUP1 REVERT JUMPDEST POP PUSH2 0x1A6 PUSH2 0x383 CALLDATASIZE PUSH1 0x4 PUSH2 0x1F61 JUMP JUMPDEST PUSH2 0x11B6 JUMP JUMPDEST CALLVALUE DUP1 ISZERO PUSH2 0x394 JUMPI PUSH1 0x0 DUP1 REVERT JUMPDEST POP PUSH2 0x1A6 PUSH2 0x3A3 CALLDATASIZE PUSH1 0x4 PUSH2 0x2187 JUMP JUMPDEST PUSH2 0x122A JUMP JUMPDEST CALLVALUE DUP1 ISZERO PUSH2 0x3B4 JUMPI PUSH1 0x0 DUP1 REVERT JUMPDEST POP PUSH2 0x35B PUSH2 0x1397 JUMP JUMPDEST CALLVALUE DUP1 ISZERO PUSH2 0x3C9 JUMPI PUSH1 0x0 DUP1 REVERT JUMPDEST POP PUSH2 0x1A6 PUSH2 0x3D8 CALLDATASIZE PUSH1 0x4 PUSH2 0x215A JUMP JUMPDEST PUSH2 0x13A6 JUMP JUMPDEST CALLVALUE DUP1 ISZERO PUSH2 0x3E9 JUMPI PUSH1 0x0 DUP1 REVERT JUMPDEST POP PUSH2 0x3FD PUSH2 0x3F8 CALLDATASIZE PUSH1 0x4 PUSH2 0x20F5 JUMP JUMPDEST PUSH2 0x149C JUMP JUMPDEST PUSH1 0x40 MLOAD PUSH2 0x1CA SWAP3 SWAP2 SWAP1 PUSH2 0x26F6 JUMP JUMPDEST CALLVALUE DUP1 ISZERO PUSH2 0x417 JUMPI PUSH1 0x0 DUP1 REVERT JUMPDEST POP PUSH2 0x35B PUSH2 0x14C0 JUMP JUMPDEST CALLVALUE DUP1 ISZERO PUSH2 0x42C JUMPI PUSH1 0x0 DUP1 REVERT JUMPDEST POP PUSH2 0x1A6 PUSH2 0x43B CALLDATASIZE PUSH1 0x4 PUSH2 0x2124 JUMP JUMPDEST PUSH2 0x14E4 JUMP JUMPDEST CALLVALUE DUP1 ISZERO PUSH2 0x44C JUMPI PUSH1 0x0 DUP1 REVERT JUMPDEST POP PUSH2 0x1BD PUSH2 0x16AF JUMP JUMPDEST CALLVALUE DUP1 ISZERO PUSH2 0x461 JUMPI PUSH1 0x0 DUP1 REVERT JUMPDEST POP PUSH2 0x35B PUSH2 0x470 CALLDATASIZE PUSH1 0x4 PUSH2 0x20C5 JUMP JUMPDEST PUSH2 0x1823 JUMP JUMPDEST PUSH2 0x488 PUSH2 0x483 CALLDATASIZE PUSH1 0x4 PUSH2 0x1EA1 JUMP JUMPDEST PUSH2 0x1830 JUMP JUMPDEST PUSH1 0x40 MLOAD PUSH2 0x1CA SWAP3 SWAP2 SWAP1 PUSH2 0x22BA JUMP JUMPDEST CALLVALUE DUP1 ISZERO PUSH2 0x4A2 JUMPI PUSH1 0x0 DUP1 REVERT JUMPDEST POP PUSH2 0x35B PUSH2 0x19C0 JUMP JUMPDEST CALLVALUE DUP1 ISZERO PUSH2 0x4B7 JUMPI PUSH1 0x0 DUP1 REVERT JUMPDEST POP PUSH2 0x35B PUSH2 0x19CF JUMP JUMPDEST PUSH1 0x0 SLOAD PUSH1 0x1 PUSH1 0x1 PUSH1 0xA0 SHL SUB AND CALLER EQ PUSH2 0x4F3 JUMPI PUSH1 0x40 MLOAD PUSH3 0x461BCD PUSH1 0xE5 SHL DUP2 MSTORE PUSH1 0x4 ADD PUSH2 0x4EA SWAP1 PUSH2 0x250A JUMP JUMPDEST PUSH1 0x40 MLOAD DUP1 SWAP2 SUB SWAP1 REVERT JUMPDEST DUP2 ISZERO PUSH2 0x58E JUMPI PUSH1 0x1 PUSH1 0x1 PUSH1 0xA0 SHL SUB DUP4 AND ISZERO ISZERO DUP1 PUSH2 0x50D JUMPI POP DUP1 JUMPDEST PUSH2 0x529 JUMPI PUSH1 0x40 MLOAD PUSH3 0x461BCD PUSH1 0xE5 SHL DUP2 MSTORE PUSH1 0x4 ADD PUSH2 0x4EA SWAP1 PUSH2 0x246D JUMP JUMPDEST PUSH1 0x0 DUP1 SLOAD PUSH1 0x40 MLOAD PUSH1 0x1 PUSH1 0x1 PUSH1 0xA0 SHL SUB DUP1 DUP8 AND SWAP4 SWAP3 AND SWAP2 PUSH32 0x8BE0079C531659141344CD1FD0A4F28419497F9722A3DAAFE3B4186F6B6457E0 SWAP2 LOG3 PUSH1 0x0 DUP1 SLOAD PUSH1 0x1 PUSH1 0x1 PUSH1 0xA0 SHL SUB DUP6 AND PUSH1 0x1 PUSH1 0x1 PUSH1 0xA0 SHL SUB NOT SWAP2 DUP3 AND OR SWAP1 SWAP2 SSTORE PUSH1 0x1 DUP1 SLOAD SWAP1 SWAP2 AND SWAP1 SSTORE PUSH2 0x5AA JUMP JUMPDEST PUSH1 0x1 DUP1 SLOAD PUSH1 0x1 PUSH1 0x1 PUSH1 0xA0 SHL SUB NOT AND PUSH1 0x1 PUSH1 0x1 PUSH1 0xA0 SHL SUB DUP6 AND OR SWAP1 SSTORE JUMPDEST POP POP POP JUMP JUMPDEST PUSH1 0x2 SLOAD SWAP1 JUMP JUMPDEST PUSH2 0x5BD PUSH2 0x1DEF JUMP JUMPDEST PUSH2 0x5C6 DUP5 PUSH2 0xEC1 JUMP JUMPDEST PUSH1 0x0 DUP6 DUP2 MSTORE PUSH1 0x5 PUSH1 0x20 SWAP1 DUP2 MSTORE PUSH1 0x40 DUP1 DUP4 KECCAK256 CALLER DUP5 MSTORE SWAP1 SWAP2 MSTORE SWAP1 KECCAK256 DUP2 MLOAD SWAP2 SWAP3 POP SWAP1 PUSH2 0x618 SWAP1 PUSH5 0xE8D4A51000 SWAP1 PUSH2 0x604 SWAP1 DUP8 SWAP1 PUSH1 0x1 PUSH1 0x1 PUSH1 0x80 SHL SUB AND PUSH2 0x19F3 JUMP JUMPDEST DUP2 PUSH2 0x60B JUMPI INVALID JUMPDEST PUSH1 0x1 DUP5 ADD SLOAD SWAP2 SWAP1 DIV PUSH2 0x1A30 JUMP JUMPDEST PUSH1 0x1 DUP3 ADD SSTORE DUP1 SLOAD PUSH2 0x629 SWAP1 DUP6 PUSH2 0x1A7D JUMP JUMPDEST DUP2 PUSH1 0x0 ADD DUP2 SWAP1 SSTORE POP PUSH2 0x65F DUP4 DUP6 PUSH1 0x3 DUP9 DUP2 SLOAD DUP2 LT PUSH2 0x643 JUMPI INVALID JUMPDEST PUSH1 0x0 SWAP2 DUP3 MSTORE PUSH1 0x20 SWAP1 SWAP2 KECCAK256 ADD SLOAD PUSH1 0x1 PUSH1 0x1 PUSH1 0xA0 SHL SUB AND SWAP2 SWAP1 PUSH2 0x1AA0 JUMP JUMPDEST DUP3 PUSH1 0x1 PUSH1 0x1 PUSH1 0xA0 SHL SUB AND DUP6 CALLER PUSH1 0x1 PUSH1 0x1 PUSH1 0xA0 SHL SUB AND PUSH32 0x8166BF25F8A2B7ED3C85049207DA4358D16EDBED977D23FA2EE6F0DDE3EC2132 DUP8 PUSH1 0x40 MLOAD PUSH2 0x6A3 SWAP2 SWAP1 PUSH2 0x26BE JUMP JUMPDEST PUSH1 0x40 MLOAD DUP1 SWAP2 SUB SWAP1 LOG4 POP POP POP POP POP JUMP JUMPDEST PUSH1 0x2 DUP2 DUP2 SLOAD DUP2 LT PUSH2 0x6BF JUMPI INVALID JUMPDEST PUSH1 0x0 SWAP2 DUP3 MSTORE PUSH1 0x20 SWAP1 SWAP2 KECCAK256 ADD SLOAD PUSH1 0x1 PUSH1 0x1 PUSH1 0x80 SHL SUB DUP2 AND SWAP2 POP PUSH1 0x1 PUSH1 0x1 PUSH1 0x40 SHL SUB PUSH1 0x1 PUSH1 0x80 SHL DUP3 DIV DUP2 AND SWAP2 PUSH1 0x1 PUSH1 0xC0 SHL SWAP1 DIV AND DUP4 JUMP JUMPDEST PUSH1 0x0 PUSH2 0x6FE PUSH2 0x1DEF JUMP JUMPDEST PUSH2 0x707 DUP5 PUSH2 0xEC1 JUMP JUMPDEST PUSH1 0x0 DUP6 DUP2 MSTORE PUSH1 0x5 PUSH1 0x20 SWAP1 DUP2 MSTORE PUSH1 0x40 DUP1 DUP4 KECCAK256 CALLER DUP5 MSTORE SWAP1 SWAP2 MSTORE DUP2 KECCAK256 DUP3 MLOAD DUP2 SLOAD SWAP4 SWAP5 POP SWAP1 SWAP3 PUSH5 0xE8D4A51000 SWAP2 PUSH2 0x743 SWAP2 SWAP1 PUSH1 0x1 PUSH1 0x1 PUSH1 0x80 SHL SUB AND PUSH2 0x19F3 JUMP JUMPDEST DUP2 PUSH2 0x74A JUMPI INVALID JUMPDEST DIV SWAP1 POP PUSH1 0x0 PUSH2 0x76E PUSH2 0x769 DUP5 PUSH1 0x1 ADD SLOAD DUP5 PUSH2 0x1A30 SWAP1 SWAP2 SWAP1 PUSH4 0xFFFFFFFF AND JUMP JUMPDEST PUSH2 0x1B8E JUMP JUMPDEST SWAP1 POP DUP1 PUSH2 0x77A JUMPI PUSH1 0x0 SWAP5 POP JUMPDEST PUSH1 0x1 DUP4 ADD DUP3 SWAP1 SSTORE PUSH2 0x7B5 PUSH1 0x1 PUSH1 0x1 PUSH1 0xA0 SHL SUB PUSH32 0x0 AND DUP8 DUP4 PUSH2 0x1AA0 JUMP JUMPDEST PUSH1 0x0 PUSH1 0x4 DUP9 DUP2 SLOAD DUP2 LT PUSH2 0x7C4 JUMPI INVALID JUMPDEST PUSH1 0x0 SWAP2 DUP3 MSTORE PUSH1 0x20 SWAP1 SWAP2 KECCAK256 ADD SLOAD PUSH1 0x1 PUSH1 0x1 PUSH1 0xA0 SHL SUB AND SWAP1 POP DUP1 ISZERO PUSH2 0x894 JUMPI DUP1 PUSH1 0x1 PUSH1 0x1 PUSH1 0xA0 SHL SUB AND PUSH2 0x1388 GAS SUB PUSH4 0xBB6CC2EF PUSH1 0xE0 SHL DUP11 CALLER DUP7 PUSH1 0x40 MLOAD PUSH1 0x24 ADD PUSH2 0x80D SWAP4 SWAP3 SWAP2 SWAP1 PUSH2 0x26C7 JUMP JUMPDEST PUSH1 0x40 DUP1 MLOAD PUSH1 0x1F NOT DUP2 DUP5 SUB ADD DUP2 MSTORE SWAP2 DUP2 MSTORE PUSH1 0x20 DUP3 ADD DUP1 MLOAD PUSH1 0x1 PUSH1 0x1 PUSH1 0xE0 SHL SUB AND PUSH1 0x1 PUSH1 0x1 PUSH1 0xE0 SHL SUB NOT SWAP1 SWAP5 AND SWAP4 SWAP1 SWAP4 OR SWAP1 SWAP3 MSTORE SWAP1 MLOAD PUSH2 0x84B SWAP2 SWAP1 PUSH2 0x220C JUMP JUMPDEST PUSH1 0x0 PUSH1 0x40 MLOAD DUP1 DUP4 SUB DUP2 PUSH1 0x0 DUP8 DUP8 CALL SWAP3 POP POP POP RETURNDATASIZE DUP1 PUSH1 0x0 DUP2 EQ PUSH2 0x889 JUMPI PUSH1 0x40 MLOAD SWAP2 POP PUSH1 0x1F NOT PUSH1 0x3F RETURNDATASIZE ADD AND DUP3 ADD PUSH1 0x40 MSTORE RETURNDATASIZE DUP3 MSTORE RETURNDATASIZE PUSH1 0x0 PUSH1 0x20 DUP5 ADD RETURNDATACOPY PUSH2 0x88E JUMP JUMPDEST PUSH1 0x60 SWAP2 POP JUMPDEST POP SWAP1 SWAP7 POP POP JUMPDEST DUP8 CALLER PUSH1 0x1 PUSH1 0x1 PUSH1 0xA0 SHL SUB AND PUSH32 0x71BAB65CED2E5750775A0613BE067DF48EF06CF92A496EBF7663AE0660924954 DUP5 PUSH1 0x40 MLOAD PUSH2 0x8CE SWAP2 SWAP1 PUSH2 0x26BE JUMP JUMPDEST PUSH1 0x40 MLOAD DUP1 SWAP2 SUB SWAP1 LOG3 POP POP POP POP POP SWAP3 SWAP2 POP POP JUMP JUMPDEST PUSH1 0x0 PUSH2 0x8EB PUSH2 0x1DEF JUMP JUMPDEST PUSH1 0x2 DUP5 DUP2 SLOAD DUP2 LT PUSH2 0x8F8 JUMPI INVALID JUMPDEST PUSH1 0x0 SWAP2 DUP3 MSTORE PUSH1 0x20 DUP1 DUP4 KECCAK256 PUSH1 0x40 DUP1 MLOAD PUSH1 0x60 DUP2 ADD DUP3 MSTORE SWAP2 SWAP1 SWAP4 ADD SLOAD PUSH1 0x1 PUSH1 0x1 PUSH1 0x80 SHL SUB DUP1 DUP3 AND DUP4 MSTORE PUSH1 0x1 PUSH1 0x1 PUSH1 0x40 SHL SUB PUSH1 0x1 PUSH1 0x80 SHL DUP4 DIV DUP2 AND DUP5 DUP7 ADD MSTORE PUSH1 0x1 PUSH1 0xC0 SHL SWAP1 SWAP3 DIV SWAP1 SWAP2 AND DUP3 DUP6 ADD MSTORE DUP9 DUP6 MSTORE PUSH1 0x5 DUP4 MSTORE DUP4 DUP6 KECCAK256 PUSH1 0x1 PUSH1 0x1 PUSH1 0xA0 SHL SUB DUP10 AND DUP7 MSTORE SWAP1 SWAP3 MSTORE SWAP2 DUP4 KECCAK256 DUP3 MLOAD PUSH1 0x3 DUP1 SLOAD SWAP5 SWAP7 POP SWAP2 SWAP5 SWAP3 AND SWAP3 DUP9 SWAP1 DUP2 LT PUSH2 0x976 JUMPI INVALID JUMPDEST PUSH1 0x0 SWAP2 DUP3 MSTORE PUSH1 0x20 SWAP1 SWAP2 KECCAK256 ADD SLOAD PUSH1 0x40 MLOAD PUSH4 0x70A08231 PUSH1 0xE0 SHL DUP2 MSTORE PUSH1 0x1 PUSH1 0x1 PUSH1 0xA0 SHL SUB SWAP1 SWAP2 AND SWAP1 PUSH4 0x70A08231 SWAP1 PUSH2 0x9AF SWAP1 ADDRESS SWAP1 PUSH1 0x4 ADD PUSH2 0x2228 JUMP JUMPDEST PUSH1 0x20 PUSH1 0x40 MLOAD DUP1 DUP4 SUB DUP2 DUP7 DUP1 EXTCODESIZE ISZERO DUP1 ISZERO PUSH2 0x9C7 JUMPI PUSH1 0x0 DUP1 REVERT JUMPDEST POP GAS STATICCALL ISZERO DUP1 ISZERO PUSH2 0x9DB JUMPI RETURNDATASIZE PUSH1 0x0 DUP1 RETURNDATACOPY RETURNDATASIZE PUSH1 0x0 REVERT JUMPDEST POP POP POP POP PUSH1 0x40 MLOAD RETURNDATASIZE PUSH1 0x1F NOT PUSH1 0x1F DUP3 ADD AND DUP3 ADD DUP1 PUSH1 0x40 MSTORE POP DUP2 ADD SWAP1 PUSH2 0x9FF SWAP2 SWAP1 PUSH2 0x20DD JUMP JUMPDEST SWAP1 POP DUP4 PUSH1 0x20 ADD MLOAD PUSH1 0x1 PUSH1 0x1 PUSH1 0x40 SHL SUB AND NUMBER GT DUP1 ISZERO PUSH2 0xA1C JUMPI POP DUP1 ISZERO ISZERO JUMPDEST ISZERO PUSH2 0xAA5 JUMPI PUSH1 0x0 PUSH2 0xA43 DUP6 PUSH1 0x20 ADD MLOAD PUSH1 0x1 PUSH1 0x1 PUSH1 0x40 SHL SUB AND NUMBER PUSH2 0x1A7D SWAP1 SWAP2 SWAP1 PUSH4 0xFFFFFFFF AND JUMP JUMPDEST SWAP1 POP PUSH1 0x0 PUSH1 0x6 SLOAD PUSH2 0xA73 DUP8 PUSH1 0x40 ADD MLOAD PUSH1 0x1 PUSH1 0x1 PUSH1 0x40 SHL SUB AND PUSH2 0xA6D PUSH2 0xA66 PUSH2 0x16AF JUMP JUMPDEST DUP7 SWAP1 PUSH2 0x19F3 JUMP JUMPDEST SWAP1 PUSH2 0x19F3 JUMP JUMPDEST DUP2 PUSH2 0xA7A JUMPI INVALID JUMPDEST DIV SWAP1 POP PUSH2 0xAA0 DUP4 PUSH2 0xA90 DUP4 PUSH5 0xE8D4A51000 PUSH2 0x19F3 JUMP JUMPDEST DUP2 PUSH2 0xA97 JUMPI INVALID JUMPDEST DUP7 SWAP2 SWAP1 DIV PUSH2 0x1BB4 JUMP JUMPDEST SWAP4 POP POP POP JUMPDEST PUSH1 0x1 DUP4 ADD SLOAD DUP4 SLOAD PUSH2 0xAD3 SWAP2 PUSH2 0x769 SWAP2 PUSH5 0xE8D4A51000 SWAP1 PUSH2 0xAC5 SWAP1 DUP8 PUSH2 0x19F3 JUMP JUMPDEST DUP2 PUSH2 0xACC JUMPI INVALID JUMPDEST DIV SWAP1 PUSH2 0x1A30 JUMP JUMPDEST SWAP8 SWAP7 POP POP POP POP POP POP POP JUMP JUMPDEST PUSH1 0x40 MLOAD PUSH4 0x70A08231 PUSH1 0xE0 SHL DUP2 MSTORE PUSH1 0x0 SWAP1 PUSH1 0x1 PUSH1 0x1 PUSH1 0xA0 SHL SUB DUP4 AND SWAP1 PUSH4 0x70A08231 SWAP1 PUSH2 0xB0D SWAP1 CALLER SWAP1 PUSH1 0x4 ADD PUSH2 0x2228 JUMP JUMPDEST PUSH1 0x20 PUSH1 0x40 MLOAD DUP1 DUP4 SUB DUP2 DUP7 DUP1 EXTCODESIZE ISZERO DUP1 ISZERO PUSH2 0xB25 JUMPI PUSH1 0x0 DUP1 REVERT JUMPDEST POP GAS STATICCALL ISZERO DUP1 ISZERO PUSH2 0xB39 JUMPI RETURNDATASIZE PUSH1 0x0 DUP1 RETURNDATACOPY RETURNDATASIZE PUSH1 0x0 REVERT JUMPDEST POP POP POP POP PUSH1 0x40 MLOAD RETURNDATASIZE PUSH1 0x1F NOT PUSH1 0x1F DUP3 ADD AND DUP3 ADD DUP1 PUSH1 0x40 MSTORE POP DUP2 ADD SWAP1 PUSH2 0xB5D SWAP2 SWAP1 PUSH2 0x20DD JUMP JUMPDEST SWAP1 POP DUP1 PUSH2 0xB7C JUMPI PUSH1 0x40 MLOAD PUSH3 0x461BCD PUSH1 0xE5 SHL DUP2 MSTORE PUSH1 0x4 ADD PUSH2 0x4EA SWAP1 PUSH2 0x23FD JUMP JUMPDEST PUSH2 0xB91 PUSH1 0x1 PUSH1 0x1 PUSH1 0xA0 SHL SUB DUP4 AND CALLER ADDRESS DUP5 PUSH2 0x1BD7 JUMP JUMPDEST PUSH1 0x40 MLOAD PUSH4 0x95EA7B3 PUSH1 0xE0 SHL DUP2 MSTORE PUSH1 0x1 PUSH1 0x1 PUSH1 0xA0 SHL SUB DUP4 AND SWAP1 PUSH4 0x95EA7B3 SWAP1 PUSH2 0xBDF SWAP1 PUSH32 0x0 SWAP1 DUP6 SWAP1 PUSH1 0x4 ADD PUSH2 0x22A1 JUMP JUMPDEST PUSH1 0x20 PUSH1 0x40 MLOAD DUP1 DUP4 SUB DUP2 PUSH1 0x0 DUP8 DUP1 EXTCODESIZE ISZERO DUP1 ISZERO PUSH2 0xBF9 JUMPI PUSH1 0x0 DUP1 REVERT JUMPDEST POP GAS CALL ISZERO DUP1 ISZERO PUSH2 0xC0D JUMPI RETURNDATASIZE PUSH1 0x0 DUP1 RETURNDATACOPY RETURNDATASIZE PUSH1 0x0 REVERT JUMPDEST POP POP POP POP PUSH1 0x40 MLOAD RETURNDATASIZE PUSH1 0x1F NOT PUSH1 0x1F DUP3 ADD AND DUP3 ADD DUP1 PUSH1 0x40 MSTORE POP DUP2 ADD SWAP1 PUSH2 0xC31 SWAP2 SWAP1 PUSH2 0x1F29 JUMP JUMPDEST POP PUSH1 0x40 MLOAD PUSH4 0x1C57762B PUSH1 0xE3 SHL DUP2 MSTORE PUSH1 0x1 PUSH1 0x1 PUSH1 0xA0 SHL SUB PUSH32 0x0 AND SWAP1 PUSH4 0xE2BBB158 SWAP1 PUSH2 0xCA0 SWAP1 PUSH32 0x0 SWAP1 DUP6 SWAP1 PUSH1 0x4 ADD PUSH2 0x26F6 JUMP JUMPDEST PUSH1 0x0 PUSH1 0x40 MLOAD DUP1 DUP4 SUB DUP2 PUSH1 0x0 DUP8 DUP1 EXTCODESIZE ISZERO DUP1 ISZERO PUSH2 0xCBA JUMPI PUSH1 0x0 DUP1 REVERT JUMPDEST POP GAS CALL ISZERO DUP1 ISZERO PUSH2 0xCCE JUMPI RETURNDATASIZE PUSH1 0x0 DUP1 RETURNDATACOPY RETURNDATASIZE PUSH1 0x0 REVERT JUMPDEST POP POP PUSH1 0x40 MLOAD PUSH32 0x98A9BD3B7A617581FC53B1E2992534E0E0CB5091C9D44AA1A7FC978F706CAA83 SWAP3 POP PUSH1 0x0 SWAP2 POP LOG1 POP POP JUMP JUMPDEST PUSH1 0x0 DUP3 DUP2 MSTORE PUSH1 0x5 PUSH1 0x20 SWAP1 DUP2 MSTORE PUSH1 0x40 DUP1 DUP4 KECCAK256 CALLER DUP5 MSTORE SWAP1 SWAP2 MSTORE DUP2 KECCAK256 DUP1 SLOAD DUP3 DUP3 SSTORE PUSH1 0x1 DUP3 ADD SWAP3 SWAP1 SWAP3 SSTORE PUSH1 0x3 DUP1 SLOAD SWAP2 SWAP3 SWAP2 PUSH2 0xD3F SWAP2 DUP6 SWAP2 DUP5 SWAP2 SWAP1 DUP9 SWAP1 DUP2 LT PUSH2 0x643 JUMPI INVALID JUMPDEST DUP3 PUSH1 0x1 PUSH1 0x1 PUSH1 0xA0 SHL SUB AND DUP5 CALLER PUSH1 0x1 PUSH1 0x1 PUSH1 0xA0 SHL SUB AND PUSH32 0x2CAC5E20E1541D836381527A43F651851E302817B71DC8E810284E69210C1C6B DUP5 PUSH1 0x40 MLOAD PUSH2 0xD83 SWAP2 SWAP1 PUSH2 0x26BE JUMP JUMPDEST PUSH1 0x40 MLOAD DUP1 SWAP2 SUB SWAP1 LOG4 POP POP POP POP JUMP JUMPDEST PUSH1 0x1 SLOAD PUSH1 0x1 PUSH1 0x1 PUSH1 0xA0 SHL SUB AND CALLER DUP2 EQ PUSH2 0xDBC JUMPI PUSH1 0x40 MLOAD PUSH3 0x461BCD PUSH1 0xE5 SHL DUP2 MSTORE PUSH1 0x4 ADD PUSH2 0x4EA SWAP1 PUSH2 0x253F JUMP JUMPDEST PUSH1 0x0 DUP1 SLOAD PUSH1 0x40 MLOAD PUSH1 0x1 PUSH1 0x1 PUSH1 0xA0 SHL SUB DUP1 DUP6 AND SWAP4 SWAP3 AND SWAP2 PUSH32 0x8BE0079C531659141344CD1FD0A4F28419497F9722A3DAAFE3B4186F6B6457E0 SWAP2 LOG3 PUSH1 0x0 DUP1 SLOAD PUSH1 0x1 PUSH1 0x1 PUSH1 0xA0 SHL SUB SWAP1 SWAP3 AND PUSH1 0x1 PUSH1 0x1 PUSH1 0xA0 SHL SUB NOT SWAP3 DUP4 AND OR SWAP1 SSTORE PUSH1 0x1 DUP1 SLOAD SWAP1 SWAP2 AND SWAP1 SSTORE JUMP JUMPDEST PUSH1 0x40 MLOAD PUSH4 0x1C57762B PUSH1 0xE3 SHL DUP2 MSTORE PUSH1 0x1 PUSH1 0x1 PUSH1 0xA0 SHL SUB PUSH32 0x0 AND SWAP1 PUSH4 0xE2BBB158 SWAP1 PUSH2 0xE8D SWAP1 PUSH32 0x0 SWAP1 PUSH1 0x0 SWAP1 PUSH1 0x4 ADD PUSH2 0x26F6 JUMP JUMPDEST PUSH1 0x0 PUSH1 0x40 MLOAD DUP1 DUP4 SUB DUP2 PUSH1 0x0 DUP8 DUP1 EXTCODESIZE ISZERO DUP1 ISZERO PUSH2 0xEA7 JUMPI PUSH1 0x0 DUP1 REVERT JUMPDEST POP GAS CALL ISZERO DUP1 ISZERO PUSH2 0xEBB JUMPI RETURNDATASIZE PUSH1 0x0 DUP1 RETURNDATACOPY RETURNDATASIZE PUSH1 0x0 REVERT JUMPDEST POP POP POP POP JUMP JUMPDEST PUSH2 0xEC9 PUSH2 0x1DEF JUMP JUMPDEST PUSH1 0x2 DUP3 DUP2 SLOAD DUP2 LT PUSH2 0xED6 JUMPI INVALID JUMPDEST PUSH1 0x0 SWAP2 DUP3 MSTORE PUSH1 0x20 SWAP2 DUP3 SWAP1 KECCAK256 PUSH1 0x40 DUP1 MLOAD PUSH1 0x60 DUP2 ADD DUP3 MSTORE SWAP3 SWAP1 SWAP2 ADD SLOAD PUSH1 0x1 PUSH1 0x1 PUSH1 0x80 SHL SUB DUP2 AND DUP4 MSTORE PUSH1 0x1 PUSH1 0x1 PUSH1 0x40 SHL SUB PUSH1 0x1 PUSH1 0x80 SHL DUP3 DIV DUP2 AND SWAP5 DUP5 ADD DUP6 SWAP1 MSTORE PUSH1 0x1 PUSH1 0xC0 SHL SWAP1 SWAP2 DIV AND SWAP1 DUP3 ADD MSTORE SWAP2 POP NUMBER GT ISZERO PUSH2 0x1136 JUMPI PUSH1 0x0 PUSH1 0x3 DUP4 DUP2 SLOAD DUP2 LT PUSH2 0xF38 JUMPI INVALID JUMPDEST PUSH1 0x0 SWAP2 DUP3 MSTORE PUSH1 0x20 SWAP1 SWAP2 KECCAK256 ADD SLOAD PUSH1 0x40 MLOAD PUSH4 0x70A08231 PUSH1 0xE0 SHL DUP2 MSTORE PUSH1 0x1 PUSH1 0x1 PUSH1 0xA0 SHL SUB SWAP1 SWAP2 AND SWAP1 PUSH4 0x70A08231 SWAP1 PUSH2 0xF71 SWAP1 ADDRESS SWAP1 PUSH1 0x4 ADD PUSH2 0x2228 JUMP JUMPDEST PUSH1 0x20 PUSH1 0x40 MLOAD DUP1 DUP4 SUB DUP2 DUP7 DUP1 EXTCODESIZE ISZERO DUP1 ISZERO PUSH2 0xF89 JUMPI PUSH1 0x0 DUP1 REVERT JUMPDEST POP GAS STATICCALL ISZERO DUP1 ISZERO PUSH2 0xF9D JUMPI RETURNDATASIZE PUSH1 0x0 DUP1 RETURNDATACOPY RETURNDATASIZE PUSH1 0x0 REVERT JUMPDEST POP POP POP POP PUSH1 0x40 MLOAD RETURNDATASIZE PUSH1 0x1F NOT PUSH1 0x1F DUP3 ADD AND DUP3 ADD DUP1 PUSH1 0x40 MSTORE POP DUP2 ADD SWAP1 PUSH2 0xFC1 SWAP2 SWAP1 PUSH2 0x20DD JUMP JUMPDEST SWAP1 POP DUP1 ISZERO PUSH2 0x105A JUMPI PUSH1 0x0 PUSH2 0xFEB DUP4 PUSH1 0x20 ADD MLOAD PUSH1 0x1 PUSH1 0x1 PUSH1 0x40 SHL SUB AND NUMBER PUSH2 0x1A7D SWAP1 SWAP2 SWAP1 PUSH4 0xFFFFFFFF AND JUMP JUMPDEST SWAP1 POP PUSH1 0x0 PUSH1 0x6 SLOAD PUSH2 0x100E DUP6 PUSH1 0x40 ADD MLOAD PUSH1 0x1 PUSH1 0x1 PUSH1 0x40 SHL SUB AND PUSH2 0xA6D PUSH2 0xA66 PUSH2 0x16AF JUMP JUMPDEST DUP2 PUSH2 0x1015 JUMPI INVALID JUMPDEST DIV SWAP1 POP PUSH2 0x104C PUSH2 0x103B DUP5 PUSH2 0x102E DUP5 PUSH5 0xE8D4A51000 PUSH2 0x19F3 JUMP JUMPDEST DUP2 PUSH2 0x1035 JUMPI INVALID JUMPDEST DIV PUSH2 0x1CC8 JUMP JUMPDEST DUP6 MLOAD PUSH1 0x1 PUSH1 0x1 PUSH1 0x80 SHL SUB AND SWAP1 PUSH2 0x1CF1 JUMP JUMPDEST PUSH1 0x1 PUSH1 0x1 PUSH1 0x80 SHL SUB AND DUP5 MSTORE POP POP JUMPDEST PUSH2 0x1063 NUMBER PUSH2 0x1D20 JUMP JUMPDEST PUSH1 0x1 PUSH1 0x1 PUSH1 0x40 SHL SUB AND PUSH1 0x20 DUP4 ADD MSTORE PUSH1 0x2 DUP1 SLOAD DUP4 SWAP2 SWAP1 DUP6 SWAP1 DUP2 LT PUSH2 0x1082 JUMPI INVALID JUMPDEST PUSH1 0x0 SWAP2 DUP3 MSTORE PUSH1 0x20 SWAP2 DUP3 SWAP1 KECCAK256 DUP4 MLOAD SWAP2 ADD DUP1 SLOAD DUP5 DUP5 ADD MLOAD PUSH1 0x40 SWAP6 DUP7 ADD MLOAD PUSH1 0x1 PUSH1 0x1 PUSH1 0x80 SHL SUB NOT SWAP1 SWAP3 AND PUSH1 0x1 PUSH1 0x1 PUSH1 0x80 SHL SUB SWAP1 SWAP5 AND SWAP4 SWAP1 SWAP4 OR PUSH8 0xFFFFFFFFFFFFFFFF PUSH1 0x80 SHL NOT AND PUSH1 0x1 PUSH1 0x80 SHL PUSH1 0x1 PUSH1 0x1 PUSH1 0x40 SHL SUB SWAP5 DUP6 AND MUL OR PUSH1 0x1 PUSH1 0x1 PUSH1 0xC0 SHL SUB AND PUSH1 0x1 PUSH1 0xC0 SHL SWAP4 SWAP1 SWAP2 AND SWAP3 SWAP1 SWAP3 MUL SWAP2 SWAP1 SWAP2 OR SWAP1 SSTORE DUP4 ADD MLOAD DUP4 MLOAD SWAP2 MLOAD DUP6 SWAP3 PUSH32 0xFC9545022A542541AD085D091FB09A2AB36FEE366A4576AB63714EA907AD353 SWAP3 PUSH2 0x112C SWAP3 SWAP1 SWAP2 DUP7 SWAP2 PUSH2 0x2704 JUMP JUMPDEST PUSH1 0x40 MLOAD DUP1 SWAP2 SUB SWAP1 LOG2 POP JUMPDEST SWAP2 SWAP1 POP JUMP JUMPDEST DUP1 PUSH1 0x0 JUMPDEST DUP2 DUP2 LT ISZERO PUSH2 0xEBB JUMPI PUSH2 0x1162 DUP5 DUP5 DUP4 DUP2 DUP2 LT PUSH2 0x1156 JUMPI INVALID JUMPDEST SWAP1 POP PUSH1 0x20 MUL ADD CALLDATALOAD PUSH2 0xEC1 JUMP JUMPDEST POP PUSH1 0x1 ADD PUSH2 0x113F JUMP JUMPDEST PUSH32 0x0 DUP2 JUMP JUMPDEST PUSH1 0x3 DUP2 DUP2 SLOAD DUP2 LT PUSH2 0x119C JUMPI INVALID JUMPDEST PUSH1 0x0 SWAP2 DUP3 MSTORE PUSH1 0x20 SWAP1 SWAP2 KECCAK256 ADD SLOAD PUSH1 0x1 PUSH1 0x1 PUSH1 0xA0 SHL SUB AND SWAP1 POP DUP2 JUMP JUMPDEST PUSH1 0x40 MLOAD PUSH4 0xD505ACCF PUSH1 0xE0 SHL DUP2 MSTORE PUSH1 0x1 PUSH1 0x1 PUSH1 0xA0 SHL SUB DUP10 AND SWAP1 PUSH4 0xD505ACCF SWAP1 PUSH2 0x11EE SWAP1 DUP11 SWAP1 DUP11 SWAP1 DUP11 SWAP1 DUP11 SWAP1 DUP11 SWAP1 DUP11 SWAP1 DUP11 SWAP1 PUSH1 0x4 ADD PUSH2 0x2260 JUMP JUMPDEST PUSH1 0x0 PUSH1 0x40 MLOAD DUP1 DUP4 SUB DUP2 PUSH1 0x0 DUP8 DUP1 EXTCODESIZE ISZERO DUP1 ISZERO PUSH2 0x1208 JUMPI PUSH1 0x0 DUP1 REVERT JUMPDEST POP GAS CALL ISZERO DUP1 ISZERO PUSH2 0x121C JUMPI RETURNDATASIZE PUSH1 0x0 DUP1 RETURNDATACOPY RETURNDATASIZE PUSH1 0x0 REVERT JUMPDEST POP POP POP POP POP POP POP POP POP POP POP POP JUMP JUMPDEST PUSH1 0x0 SLOAD PUSH1 0x1 PUSH1 0x1 PUSH1 0xA0 SHL SUB AND CALLER EQ PUSH2 0x1254 JUMPI PUSH1 0x40 MLOAD PUSH3 0x461BCD PUSH1 0xE5 SHL DUP2 MSTORE PUSH1 0x4 ADD PUSH2 0x4EA SWAP1 PUSH2 0x250A JUMP JUMPDEST PUSH2 0x1293 DUP4 PUSH2 0x128D PUSH1 0x2 DUP8 DUP2 SLOAD DUP2 LT PUSH2 0x1268 JUMPI INVALID JUMPDEST PUSH1 0x0 SWAP2 DUP3 MSTORE PUSH1 0x20 SWAP1 SWAP2 KECCAK256 ADD SLOAD PUSH1 0x6 SLOAD SWAP1 PUSH1 0x1 PUSH1 0xC0 SHL SWAP1 DIV PUSH1 0x1 PUSH1 0x1 PUSH1 0x40 SHL SUB AND PUSH2 0x1A7D JUMP JUMPDEST SWAP1 PUSH2 0x1BB4 JUMP JUMPDEST PUSH1 0x6 SSTORE PUSH2 0x129F DUP4 PUSH2 0x1D20 JUMP JUMPDEST PUSH1 0x2 DUP6 DUP2 SLOAD DUP2 LT PUSH2 0x12AC JUMPI INVALID JUMPDEST SWAP1 PUSH1 0x0 MSTORE PUSH1 0x20 PUSH1 0x0 KECCAK256 ADD PUSH1 0x0 ADD PUSH1 0x18 PUSH2 0x100 EXP DUP2 SLOAD DUP2 PUSH1 0x1 PUSH1 0x1 PUSH1 0x40 SHL SUB MUL NOT AND SWAP1 DUP4 PUSH1 0x1 PUSH1 0x1 PUSH1 0x40 SHL SUB AND MUL OR SWAP1 SSTORE POP DUP1 ISZERO PUSH2 0x1320 JUMPI DUP2 PUSH1 0x4 DUP6 DUP2 SLOAD DUP2 LT PUSH2 0x12F1 JUMPI INVALID JUMPDEST SWAP1 PUSH1 0x0 MSTORE PUSH1 0x20 PUSH1 0x0 KECCAK256 ADD PUSH1 0x0 PUSH2 0x100 EXP DUP2 SLOAD DUP2 PUSH1 0x1 PUSH1 0x1 PUSH1 0xA0 SHL SUB MUL NOT AND SWAP1 DUP4 PUSH1 0x1 PUSH1 0x1 PUSH1 0xA0 SHL SUB AND MUL OR SWAP1 SSTORE POP JUMPDEST DUP1 PUSH2 0x134C JUMPI PUSH1 0x4 DUP5 DUP2 SLOAD DUP2 LT PUSH2 0x1332 JUMPI INVALID JUMPDEST PUSH1 0x0 SWAP2 DUP3 MSTORE PUSH1 0x20 SWAP1 SWAP2 KECCAK256 ADD SLOAD PUSH1 0x1 PUSH1 0x1 PUSH1 0xA0 SHL SUB AND PUSH2 0x134E JUMP JUMPDEST DUP2 JUMPDEST PUSH1 0x1 PUSH1 0x1 PUSH1 0xA0 SHL SUB AND DUP5 PUSH32 0x95895A6AB1DF54420D241B55243258A33E61B2194DB66C1179EC521AAE8E1865 DUP6 DUP5 PUSH1 0x40 MLOAD PUSH2 0x1389 SWAP3 SWAP2 SWAP1 PUSH2 0x26E6 JUMP JUMPDEST PUSH1 0x40 MLOAD DUP1 SWAP2 SUB SWAP1 LOG3 POP POP POP POP JUMP JUMPDEST PUSH1 0x0 SLOAD PUSH1 0x1 PUSH1 0x1 PUSH1 0xA0 SHL SUB AND DUP2 JUMP JUMPDEST PUSH2 0x13AE PUSH2 0x1DEF JUMP JUMPDEST PUSH2 0x13B7 DUP5 PUSH2 0xEC1 JUMP JUMPDEST PUSH1 0x0 DUP6 DUP2 MSTORE PUSH1 0x5 PUSH1 0x20 SWAP1 DUP2 MSTORE PUSH1 0x40 DUP1 DUP4 KECCAK256 PUSH1 0x1 PUSH1 0x1 PUSH1 0xA0 SHL SUB DUP8 AND DUP5 MSTORE SWAP1 SWAP2 MSTORE SWAP1 KECCAK256 DUP1 SLOAD SWAP2 SWAP3 POP SWAP1 PUSH2 0x13E9 SWAP1 DUP6 PUSH2 0x1BB4 JUMP JUMPDEST DUP2 SSTORE DUP2 MLOAD PUSH2 0x1420 SWAP1 PUSH5 0xE8D4A51000 SWAP1 PUSH2 0x140C SWAP1 DUP8 SWAP1 PUSH1 0x1 PUSH1 0x1 PUSH1 0x80 SHL SUB AND PUSH2 0x19F3 JUMP JUMPDEST DUP2 PUSH2 0x1413 JUMPI INVALID JUMPDEST PUSH1 0x1 DUP5 ADD SLOAD SWAP2 SWAP1 DIV PUSH2 0x1D49 JUMP JUMPDEST DUP2 PUSH1 0x1 ADD DUP2 SWAP1 SSTORE POP PUSH2 0x1458 CALLER ADDRESS DUP7 PUSH1 0x3 DUP10 DUP2 SLOAD DUP2 LT PUSH2 0x143B JUMPI INVALID JUMPDEST PUSH1 0x0 SWAP2 DUP3 MSTORE PUSH1 0x20 SWAP1 SWAP2 KECCAK256 ADD SLOAD PUSH1 0x1 PUSH1 0x1 PUSH1 0xA0 SHL SUB AND SWAP3 SWAP2 SWAP1 PUSH2 0x1BD7 JUMP JUMPDEST DUP3 PUSH1 0x1 PUSH1 0x1 PUSH1 0xA0 SHL SUB AND DUP6 CALLER PUSH1 0x1 PUSH1 0x1 PUSH1 0xA0 SHL SUB AND PUSH32 0x2D7E648DD130FC184D383E55BB126AC4C9C60E8F94BF05ACDF557BA2D540B47 DUP8 PUSH1 0x40 MLOAD PUSH2 0x6A3 SWAP2 SWAP1 PUSH2 0x26BE JUMP JUMPDEST PUSH1 0x5 PUSH1 0x20 SWAP1 DUP2 MSTORE PUSH1 0x0 SWAP3 DUP4 MSTORE PUSH1 0x40 DUP1 DUP5 KECCAK256 SWAP1 SWAP2 MSTORE SWAP1 DUP3 MSTORE SWAP1 KECCAK256 DUP1 SLOAD PUSH1 0x1 SWAP1 SWAP2 ADD SLOAD DUP3 JUMP JUMPDEST PUSH32 0x0 DUP2 JUMP JUMPDEST PUSH1 0x0 SLOAD PUSH1 0x1 PUSH1 0x1 PUSH1 0xA0 SHL SUB AND CALLER EQ PUSH2 0x150E JUMPI PUSH1 0x40 MLOAD PUSH3 0x461BCD PUSH1 0xE5 SHL DUP2 MSTORE PUSH1 0x4 ADD PUSH2 0x4EA SWAP1 PUSH2 0x250A JUMP JUMPDEST PUSH1 0x6 SLOAD NUMBER SWAP1 PUSH2 0x151D SWAP1 DUP6 PUSH2 0x1BB4 JUMP JUMPDEST PUSH1 0x6 SSTORE PUSH1 0x3 DUP1 SLOAD PUSH1 0x1 DUP2 DUP2 ADD SWAP1 SWAP3 SSTORE PUSH32 0xC2575A0E9E593C00F959F8C92F12DB2869C3395A3B0502D05E2516446F71F85B ADD DUP1 SLOAD PUSH1 0x1 PUSH1 0x1 PUSH1 0xA0 SHL SUB DUP1 DUP8 AND PUSH1 0x1 PUSH1 0x1 PUSH1 0xA0 SHL SUB NOT SWAP3 DUP4 AND OR SWAP1 SWAP3 SSTORE PUSH1 0x4 DUP1 SLOAD SWAP4 DUP5 ADD DUP2 SSTORE PUSH1 0x0 SWAP1 DUP2 MSTORE PUSH32 0x8A35ACFBC15FF81A39AE7D344FD709F28E8600B4AA8C65C6B64BFE7FE36BD19B SWAP1 SWAP4 ADD DUP1 SLOAD SWAP3 DUP7 AND SWAP3 SWAP1 SWAP2 AND SWAP2 SWAP1 SWAP2 OR SWAP1 SSTORE PUSH1 0x40 DUP1 MLOAD PUSH1 0x60 DUP2 ADD SWAP1 SWAP2 MSTORE SWAP1 DUP2 MSTORE PUSH1 0x2 SWAP1 PUSH1 0x20 DUP2 ADD PUSH2 0x15CA DUP5 PUSH2 0x1D20 JUMP JUMPDEST PUSH1 0x1 PUSH1 0x1 PUSH1 0x40 SHL SUB AND DUP2 MSTORE PUSH1 0x20 ADD PUSH2 0x15E1 DUP8 PUSH2 0x1D20 JUMP JUMPDEST PUSH1 0x1 PUSH1 0x1 PUSH1 0x40 SHL SUB SWAP1 DUP2 AND SWAP1 SWAP2 MSTORE DUP3 SLOAD PUSH1 0x1 DUP2 DUP2 ADD DUP6 SSTORE PUSH1 0x0 SWAP5 DUP6 MSTORE PUSH1 0x20 SWAP5 DUP6 SWAP1 KECCAK256 DUP5 MLOAD SWAP3 ADD DUP1 SLOAD SWAP6 DUP6 ADD MLOAD PUSH1 0x40 SWAP1 SWAP6 ADD MLOAD DUP5 AND PUSH1 0x1 PUSH1 0xC0 SHL MUL PUSH1 0x1 PUSH1 0x1 PUSH1 0xC0 SHL SUB SWAP6 SWAP1 SWAP5 AND PUSH1 0x1 PUSH1 0x80 SHL MUL PUSH8 0xFFFFFFFFFFFFFFFF PUSH1 0x80 SHL NOT PUSH1 0x1 PUSH1 0x1 PUSH1 0x80 SHL SUB SWAP1 SWAP5 AND PUSH1 0x1 PUSH1 0x1 PUSH1 0x80 SHL SUB NOT SWAP1 SWAP8 AND SWAP7 SWAP1 SWAP7 OR SWAP3 SWAP1 SWAP3 AND SWAP5 SWAP1 SWAP5 OR SWAP3 SWAP1 SWAP3 AND OR SWAP1 SSTORE PUSH1 0x3 SLOAD PUSH1 0x1 PUSH1 0x1 PUSH1 0xA0 SHL SUB DUP1 DUP6 AND SWAP3 SWAP1 DUP7 AND SWAP2 PUSH2 0x1680 SWAP2 PUSH2 0x1A7D JUMP JUMPDEST PUSH32 0x81EE0F8C5C46E2CB41984886F77A84181724ABB86C32A5F6DE539B07509D45E5 DUP8 PUSH1 0x40 MLOAD PUSH2 0xD83 SWAP2 SWAP1 PUSH2 0x26BE JUMP JUMPDEST PUSH1 0x0 PUSH32 0x0 PUSH1 0x1 PUSH1 0x1 PUSH1 0xA0 SHL SUB AND PUSH4 0x17CAF6F1 PUSH1 0x40 MLOAD DUP2 PUSH4 0xFFFFFFFF AND PUSH1 0xE0 SHL DUP2 MSTORE PUSH1 0x4 ADD PUSH1 0x20 PUSH1 0x40 MLOAD DUP1 DUP4 SUB DUP2 DUP7 DUP1 EXTCODESIZE ISZERO DUP1 ISZERO PUSH2 0x170A JUMPI PUSH1 0x0 DUP1 REVERT JUMPDEST POP GAS STATICCALL ISZERO DUP1 ISZERO PUSH2 0x171E JUMPI RETURNDATASIZE PUSH1 0x0 DUP1 RETURNDATACOPY RETURNDATASIZE PUSH1 0x0 REVERT JUMPDEST POP POP POP POP PUSH1 0x40 MLOAD RETURNDATASIZE PUSH1 0x1F NOT PUSH1 0x1F DUP3 ADD AND DUP3 ADD DUP1 PUSH1 0x40 MSTORE POP DUP2 ADD SWAP1 PUSH2 0x1742 SWAP2 SWAP1 PUSH2 0x20DD JUMP JUMPDEST PUSH1 0x40 MLOAD PUSH4 0x1526FE27 PUSH1 0xE0 SHL DUP2 MSTORE PUSH2 0x1816 SWAP1 PUSH1 0x1 PUSH1 0x1 PUSH1 0xA0 SHL SUB PUSH32 0x0 AND SWAP1 PUSH4 0x1526FE27 SWAP1 PUSH2 0x17B2 SWAP1 PUSH32 0x0 SWAP1 PUSH1 0x4 ADD PUSH2 0x26BE JUMP JUMPDEST PUSH1 0x80 PUSH1 0x40 MLOAD DUP1 DUP4 SUB DUP2 DUP7 DUP1 EXTCODESIZE ISZERO DUP1 ISZERO PUSH2 0x17CA JUMPI PUSH1 0x0 DUP1 REVERT JUMPDEST POP GAS STATICCALL ISZERO DUP1 ISZERO PUSH2 0x17DE JUMPI RETURNDATASIZE PUSH1 0x0 DUP1 RETURNDATACOPY RETURNDATASIZE PUSH1 0x0 REVERT JUMPDEST POP POP POP POP PUSH1 0x40 MLOAD RETURNDATASIZE PUSH1 0x1F NOT PUSH1 0x1F DUP3 ADD AND DUP3 ADD DUP1 PUSH1 0x40 MSTORE POP DUP2 ADD SWAP1 PUSH2 0x1802 SWAP2 SWAP1 PUSH2 0x2073 JUMP JUMPDEST PUSH1 0x20 ADD MLOAD PUSH9 0x56BC75E2D63100000 SWAP1 PUSH2 0x19F3 JUMP JUMPDEST DUP2 PUSH2 0x181D JUMPI INVALID JUMPDEST DIV SWAP1 POP SWAP1 JUMP JUMPDEST PUSH1 0x4 DUP2 DUP2 SLOAD DUP2 LT PUSH2 0x119C JUMPI INVALID JUMPDEST PUSH1 0x60 DUP1 DUP4 PUSH1 0x1 PUSH1 0x1 PUSH1 0x40 SHL SUB DUP2 GT DUP1 ISZERO PUSH2 0x1849 JUMPI PUSH1 0x0 DUP1 REVERT JUMPDEST POP PUSH1 0x40 MLOAD SWAP1 DUP1 DUP3 MSTORE DUP1 PUSH1 0x20 MUL PUSH1 0x20 ADD DUP3 ADD PUSH1 0x40 MSTORE DUP1 ISZERO PUSH2 0x1873 JUMPI DUP2 PUSH1 0x20 ADD PUSH1 0x20 DUP3 MUL DUP1 CALLDATASIZE DUP4 CALLDATACOPY ADD SWAP1 POP JUMPDEST POP SWAP2 POP DUP4 PUSH1 0x1 PUSH1 0x1 PUSH1 0x40 SHL SUB DUP2 GT DUP1 ISZERO PUSH2 0x188C JUMPI PUSH1 0x0 DUP1 REVERT JUMPDEST POP PUSH1 0x40 MLOAD SWAP1 DUP1 DUP3 MSTORE DUP1 PUSH1 0x20 MUL PUSH1 0x20 ADD DUP3 ADD PUSH1 0x40 MSTORE DUP1 ISZERO PUSH2 0x18C0 JUMPI DUP2 PUSH1 0x20 ADD JUMPDEST PUSH1 0x60 DUP2 MSTORE PUSH1 0x20 ADD SWAP1 PUSH1 0x1 SWAP1 SUB SWAP1 DUP2 PUSH2 0x18AB JUMPI SWAP1 POP JUMPDEST POP SWAP1 POP PUSH1 0x0 JUMPDEST DUP5 DUP2 LT ISZERO PUSH2 0x19B7 JUMPI PUSH1 0x0 PUSH1 0x60 ADDRESS DUP9 DUP9 DUP6 DUP2 DUP2 LT PUSH2 0x18DF JUMPI INVALID JUMPDEST SWAP1 POP PUSH1 0x20 MUL DUP2 ADD SWAP1 PUSH2 0x18F1 SWAP2 SWAP1 PUSH2 0x272E JUMP JUMPDEST PUSH1 0x40 MLOAD PUSH2 0x18FF SWAP3 SWAP2 SWAP1 PUSH2 0x21FC JUMP JUMPDEST PUSH1 0x0 PUSH1 0x40 MLOAD DUP1 DUP4 SUB DUP2 DUP6 GAS DELEGATECALL SWAP2 POP POP RETURNDATASIZE DUP1 PUSH1 0x0 DUP2 EQ PUSH2 0x193A JUMPI PUSH1 0x40 MLOAD SWAP2 POP PUSH1 0x1F NOT PUSH1 0x3F RETURNDATASIZE ADD AND DUP3 ADD PUSH1 0x40 MSTORE RETURNDATASIZE DUP3 MSTORE RETURNDATASIZE PUSH1 0x0 PUSH1 0x20 DUP5 ADD RETURNDATACOPY PUSH2 0x193F JUMP JUMPDEST PUSH1 0x60 SWAP2 POP JUMPDEST POP SWAP2 POP SWAP2 POP DUP2 DUP1 PUSH2 0x194E JUMPI POP DUP6 ISZERO JUMPDEST PUSH2 0x1957 DUP3 PUSH2 0x1D8F JUMP JUMPDEST SWAP1 PUSH2 0x1975 JUMPI PUSH1 0x40 MLOAD PUSH3 0x461BCD PUSH1 0xE5 SHL DUP2 MSTORE PUSH1 0x4 ADD PUSH2 0x4EA SWAP2 SWAP1 PUSH2 0x235F JUMP JUMPDEST POP DUP2 DUP6 DUP5 DUP2 MLOAD DUP2 LT PUSH2 0x1983 JUMPI INVALID JUMPDEST PUSH1 0x20 MUL PUSH1 0x20 ADD ADD SWAP1 ISZERO ISZERO SWAP1 DUP2 ISZERO ISZERO DUP2 MSTORE POP POP DUP1 DUP5 DUP5 DUP2 MLOAD DUP2 LT PUSH2 0x19A2 JUMPI INVALID JUMPDEST PUSH1 0x20 SWAP1 DUP2 MUL SWAP2 SWAP1 SWAP2 ADD ADD MSTORE POP POP PUSH1 0x1 ADD PUSH2 0x18C6 JUMP JUMPDEST POP SWAP4 POP SWAP4 SWAP2 POP POP JUMP JUMPDEST PUSH1 0x1 SLOAD PUSH1 0x1 PUSH1 0x1 PUSH1 0xA0 SHL SUB AND DUP2 JUMP JUMPDEST PUSH32 0x0 DUP2 JUMP JUMPDEST PUSH1 0x0 DUP2 ISZERO DUP1 PUSH2 0x1A0E JUMPI POP POP DUP1 DUP3 MUL DUP3 DUP3 DUP3 DUP2 PUSH2 0x1A0B JUMPI INVALID JUMPDEST DIV EQ JUMPDEST PUSH2 0x1A2A JUMPI PUSH1 0x40 MLOAD PUSH3 0x461BCD PUSH1 0xE5 SHL DUP2 MSTORE PUSH1 0x4 ADD PUSH2 0x4EA SWAP1 PUSH2 0x2624 JUMP JUMPDEST SWAP3 SWAP2 POP POP JUMP JUMPDEST PUSH1 0x0 DUP2 DUP4 SUB DUP2 DUP4 SLT DUP1 ISZERO SWAP1 PUSH2 0x1A45 JUMPI POP DUP4 DUP2 SGT ISZERO JUMPDEST DUP1 PUSH2 0x1A5A JUMPI POP PUSH1 0x0 DUP4 SLT DUP1 ISZERO PUSH2 0x1A5A JUMPI POP DUP4 DUP2 SGT JUMPDEST PUSH2 0x1A76 JUMPI PUSH1 0x40 MLOAD PUSH3 0x461BCD PUSH1 0xE5 SHL DUP2 MSTORE PUSH1 0x4 ADD PUSH2 0x4EA SWAP1 PUSH2 0x25AB JUMP JUMPDEST SWAP4 SWAP3 POP POP POP JUMP JUMPDEST DUP1 DUP3 SUB DUP3 DUP2 GT ISZERO PUSH2 0x1A2A JUMPI PUSH1 0x40 MLOAD PUSH3 0x461BCD PUSH1 0xE5 SHL DUP2 MSTORE PUSH1 0x4 ADD PUSH2 0x4EA SWAP1 PUSH2 0x2372 JUMP JUMPDEST PUSH1 0x0 PUSH1 0x60 DUP5 PUSH1 0x1 PUSH1 0x1 PUSH1 0xA0 SHL SUB AND PUSH4 0xA9059CBB DUP6 DUP6 PUSH1 0x40 MLOAD PUSH1 0x24 ADD PUSH2 0x1AC6 SWAP3 SWAP2 SWAP1 PUSH2 0x22A1 JUMP JUMPDEST PUSH1 0x40 MLOAD PUSH1 0x20 DUP2 DUP4 SUB SUB DUP2 MSTORE SWAP1 PUSH1 0x40 MSTORE SWAP1 PUSH1 0xE0 SHL PUSH1 0x20 DUP3 ADD DUP1 MLOAD PUSH1 0x1 PUSH1 0x1 PUSH1 0xE0 SHL SUB DUP4 DUP2 DUP4 AND OR DUP4 MSTORE POP POP POP POP PUSH1 0x40 MLOAD PUSH2 0x1AFF SWAP2 SWAP1 PUSH2 0x220C JUMP JUMPDEST PUSH1 0x0 PUSH1 0x40 MLOAD DUP1 DUP4 SUB DUP2 PUSH1 0x0 DUP7 GAS CALL SWAP2 POP POP RETURNDATASIZE DUP1 PUSH1 0x0 DUP2 EQ PUSH2 0x1B3C JUMPI PUSH1 0x40 MLOAD SWAP2 POP PUSH1 0x1F NOT PUSH1 0x3F RETURNDATASIZE ADD AND DUP3 ADD PUSH1 0x40 MSTORE RETURNDATASIZE DUP3 MSTORE RETURNDATASIZE PUSH1 0x0 PUSH1 0x20 DUP5 ADD RETURNDATACOPY PUSH2 0x1B41 JUMP JUMPDEST PUSH1 0x60 SWAP2 POP JUMPDEST POP SWAP2 POP SWAP2 POP DUP2 DUP1 ISZERO PUSH2 0x1B6B JUMPI POP DUP1 MLOAD ISZERO DUP1 PUSH2 0x1B6B JUMPI POP DUP1 DUP1 PUSH1 0x20 ADD SWAP1 MLOAD DUP2 ADD SWAP1 PUSH2 0x1B6B SWAP2 SWAP1 PUSH2 0x1F29 JUMP JUMPDEST PUSH2 0x1B87 JUMPI PUSH1 0x40 MLOAD PUSH3 0x461BCD PUSH1 0xE5 SHL DUP2 MSTORE PUSH1 0x4 ADD PUSH2 0x4EA SWAP1 PUSH2 0x23C6 JUMP JUMPDEST POP POP POP POP POP JUMP JUMPDEST PUSH1 0x0 DUP1 DUP3 SLT ISZERO PUSH2 0x1BB0 JUMPI PUSH1 0x40 MLOAD PUSH3 0x461BCD PUSH1 0xE5 SHL DUP2 MSTORE PUSH1 0x4 ADD PUSH2 0x4EA SWAP1 PUSH2 0x23A1 JUMP JUMPDEST POP SWAP1 JUMP JUMPDEST DUP2 DUP2 ADD DUP2 DUP2 LT ISZERO PUSH2 0x1A2A JUMPI PUSH1 0x40 MLOAD PUSH3 0x461BCD PUSH1 0xE5 SHL DUP2 MSTORE PUSH1 0x4 ADD PUSH2 0x4EA SWAP1 PUSH2 0x24D3 JUMP JUMPDEST PUSH1 0x0 PUSH1 0x60 DUP6 PUSH1 0x1 PUSH1 0x1 PUSH1 0xA0 SHL SUB AND PUSH4 0x23B872DD DUP7 DUP7 DUP7 PUSH1 0x40 MLOAD PUSH1 0x24 ADD PUSH2 0x1BFF SWAP4 SWAP3 SWAP2 SWAP1 PUSH2 0x223C JUMP JUMPDEST PUSH1 0x40 MLOAD PUSH1 0x20 DUP2 DUP4 SUB SUB DUP2 MSTORE SWAP1 PUSH1 0x40 MSTORE SWAP1 PUSH1 0xE0 SHL PUSH1 0x20 DUP3 ADD DUP1 MLOAD PUSH1 0x1 PUSH1 0x1 PUSH1 0xE0 SHL SUB DUP4 DUP2 DUP4 AND OR DUP4 MSTORE POP POP POP POP PUSH1 0x40 MLOAD PUSH2 0x1C38 SWAP2 SWAP1 PUSH2 0x220C JUMP JUMPDEST PUSH1 0x0 PUSH1 0x40 MLOAD DUP1 DUP4 SUB DUP2 PUSH1 0x0 DUP7 GAS CALL SWAP2 POP POP RETURNDATASIZE DUP1 PUSH1 0x0 DUP2 EQ PUSH2 0x1C75 JUMPI PUSH1 0x40 MLOAD SWAP2 POP PUSH1 0x1F NOT PUSH1 0x3F RETURNDATASIZE ADD AND DUP3 ADD PUSH1 0x40 MSTORE RETURNDATASIZE DUP3 MSTORE RETURNDATASIZE PUSH1 0x0 PUSH1 0x20 DUP5 ADD RETURNDATACOPY PUSH2 0x1C7A JUMP JUMPDEST PUSH1 0x60 SWAP2 POP JUMPDEST POP SWAP2 POP SWAP2 POP DUP2 DUP1 ISZERO PUSH2 0x1CA4 JUMPI POP DUP1 MLOAD ISZERO DUP1 PUSH2 0x1CA4 JUMPI POP DUP1 DUP1 PUSH1 0x20 ADD SWAP1 MLOAD DUP2 ADD SWAP1 PUSH2 0x1CA4 SWAP2 SWAP1 PUSH2 0x1F29 JUMP JUMPDEST PUSH2 0x1CC0 JUMPI PUSH1 0x40 MLOAD PUSH3 0x461BCD PUSH1 0xE5 SHL DUP2 MSTORE PUSH1 0x4 ADD PUSH2 0x4EA SWAP1 PUSH2 0x25EF JUMP JUMPDEST POP POP POP POP POP POP JUMP JUMPDEST PUSH1 0x0 PUSH1 0x1 PUSH1 0x1 PUSH1 0x80 SHL SUB DUP3 GT ISZERO PUSH2 0x1BB0 JUMPI PUSH1 0x40 MLOAD PUSH3 0x461BCD PUSH1 0xE5 SHL DUP2 MSTORE PUSH1 0x4 ADD PUSH2 0x4EA SWAP1 PUSH2 0x249C JUMP JUMPDEST DUP2 DUP2 ADD PUSH1 0x1 PUSH1 0x1 PUSH1 0x80 SHL SUB DUP1 DUP4 AND SWAP1 DUP3 AND LT ISZERO PUSH2 0x1A2A JUMPI PUSH1 0x40 MLOAD PUSH3 0x461BCD PUSH1 0xE5 SHL DUP2 MSTORE PUSH1 0x4 ADD PUSH2 0x4EA SWAP1 PUSH2 0x24D3 JUMP JUMPDEST PUSH1 0x0 PUSH1 0x1 PUSH1 0x1 PUSH1 0x40 SHL SUB DUP3 GT ISZERO PUSH2 0x1BB0 JUMPI PUSH1 0x40 MLOAD PUSH3 0x461BCD PUSH1 0xE5 SHL DUP2 MSTORE PUSH1 0x4 ADD PUSH2 0x4EA SWAP1 PUSH2 0x2574 JUMP JUMPDEST PUSH1 0x0 DUP3 DUP3 ADD DUP2 DUP4 SLT DUP1 ISZERO SWAP1 PUSH2 0x1D5E JUMPI POP DUP4 DUP2 SLT ISZERO JUMPDEST DUP1 PUSH2 0x1D73 JUMPI POP PUSH1 0x0 DUP4 SLT DUP1 ISZERO PUSH2 0x1D73 JUMPI POP DUP4 DUP2 SLT JUMPDEST PUSH2 0x1A76 JUMPI PUSH1 0x40 MLOAD PUSH3 0x461BCD PUSH1 0xE5 SHL DUP2 MSTORE PUSH1 0x4 ADD PUSH2 0x4EA SWAP1 PUSH2 0x242C JUMP JUMPDEST PUSH1 0x60 PUSH1 0x44 DUP3 MLOAD LT ISZERO PUSH2 0x1DD5 JUMPI POP PUSH1 0x40 DUP1 MLOAD DUP1 DUP3 ADD SWAP1 SWAP2 MSTORE PUSH1 0x1D DUP2 MSTORE PUSH32 0x5472616E73616374696F6E2072657665727465642073696C656E746C79000000 PUSH1 0x20 DUP3 ADD MSTORE PUSH2 0x1136 JUMP JUMPDEST PUSH1 0x4 DUP3 ADD SWAP2 POP DUP2 DUP1 PUSH1 0x20 ADD SWAP1 MLOAD DUP2 ADD SWAP1 PUSH2 0x1A2A SWAP2 SWAP1 PUSH2 0x1FE8 JUMP JUMPDEST PUSH1 0x40 DUP1 MLOAD PUSH1 0x60 DUP2 ADD DUP3 MSTORE PUSH1 0x0 DUP1 DUP3 MSTORE PUSH1 0x20 DUP3 ADD DUP2 SWAP1 MSTORE SWAP2 DUP2 ADD SWAP2 SWAP1 SWAP2 MSTORE SWAP1 JUMP JUMPDEST PUSH1 0x0 DUP1 DUP4 PUSH1 0x1F DUP5 ADD SLT PUSH2 0x1E20 JUMPI DUP2 DUP3 REVERT JUMPDEST POP DUP2 CALLDATALOAD PUSH1 0x1 PUSH1 0x1 PUSH1 0x40 SHL SUB DUP2 GT ISZERO PUSH2 0x1E36 JUMPI DUP2 DUP3 REVERT JUMPDEST PUSH1 0x20 DUP4 ADD SWAP2 POP DUP4 PUSH1 0x20 DUP1 DUP4 MUL DUP6 ADD ADD GT ISZERO PUSH2 0x1E50 JUMPI PUSH1 0x0 DUP1 REVERT JUMPDEST SWAP3 POP SWAP3 SWAP1 POP JUMP JUMPDEST PUSH1 0x0 DUP1 PUSH1 0x0 PUSH1 0x60 DUP5 DUP7 SUB SLT ISZERO PUSH2 0x1E6B JUMPI DUP3 DUP4 REVERT JUMPDEST DUP4 CALLDATALOAD PUSH2 0x1E76 DUP2 PUSH2 0x27C4 JUMP JUMPDEST SWAP3 POP PUSH1 0x20 DUP5 ADD CALLDATALOAD PUSH2 0x1E86 DUP2 PUSH2 0x27DC JUMP JUMPDEST SWAP2 POP PUSH1 0x40 DUP5 ADD CALLDATALOAD PUSH2 0x1E96 DUP2 PUSH2 0x27DC JUMP JUMPDEST DUP1 SWAP2 POP POP SWAP3 POP SWAP3 POP SWAP3 JUMP JUMPDEST PUSH1 0x0 DUP1 PUSH1 0x0 PUSH1 0x40 DUP5 DUP7 SUB SLT ISZERO PUSH2 0x1EB5 JUMPI DUP3 DUP4 REVERT JUMPDEST DUP4 CALLDATALOAD PUSH1 0x1 PUSH1 0x1 PUSH1 0x40 SHL SUB DUP2 GT ISZERO PUSH2 0x1ECA JUMPI DUP4 DUP5 REVERT JUMPDEST PUSH2 0x1ED6 DUP7 DUP3 DUP8 ADD PUSH2 0x1E0F JUMP JUMPDEST SWAP1 SWAP5 POP SWAP3 POP POP PUSH1 0x20 DUP5 ADD CALLDATALOAD PUSH2 0x1E96 DUP2 PUSH2 0x27DC JUMP JUMPDEST PUSH1 0x0 DUP1 PUSH1 0x20 DUP4 DUP6 SUB SLT ISZERO PUSH2 0x1EFC JUMPI DUP2 DUP3 REVERT JUMPDEST DUP3 CALLDATALOAD PUSH1 0x1 PUSH1 0x1 PUSH1 0x40 SHL SUB DUP2 GT ISZERO PUSH2 0x1F11 JUMPI DUP3 DUP4 REVERT JUMPDEST PUSH2 0x1F1D DUP6 DUP3 DUP7 ADD PUSH2 0x1E0F JUMP JUMPDEST SWAP1 SWAP7 SWAP1 SWAP6 POP SWAP4 POP POP POP POP JUMP JUMPDEST PUSH1 0x0 PUSH1 0x20 DUP3 DUP5 SUB SLT ISZERO PUSH2 0x1F3A JUMPI DUP1 DUP2 REVERT JUMPDEST DUP2 MLOAD PUSH2 0x1A76 DUP2 PUSH2 0x27DC JUMP JUMPDEST PUSH1 0x0 PUSH1 0x20 DUP3 DUP5 SUB SLT ISZERO PUSH2 0x1F56 JUMPI DUP1 DUP2 REVERT JUMPDEST DUP2 CALLDATALOAD PUSH2 0x1A76 DUP2 PUSH2 0x27C4 JUMP JUMPDEST PUSH1 0x0 DUP1 PUSH1 0x0 DUP1 PUSH1 0x0 DUP1 PUSH1 0x0 DUP1 PUSH2 0x100 DUP10 DUP12 SUB SLT ISZERO PUSH2 0x1F7D JUMPI DUP4 DUP5 REVERT JUMPDEST DUP9 CALLDATALOAD PUSH2 0x1F88 DUP2 PUSH2 0x27C4 JUMP JUMPDEST SWAP8 POP PUSH1 0x20 DUP10 ADD CALLDATALOAD PUSH2 0x1F98 DUP2 PUSH2 0x27C4 JUMP JUMPDEST SWAP7 POP PUSH1 0x40 DUP10 ADD CALLDATALOAD PUSH2 0x1FA8 DUP2 PUSH2 0x27C4 JUMP JUMPDEST SWAP6 POP PUSH1 0x60 DUP10 ADD CALLDATALOAD SWAP5 POP PUSH1 0x80 DUP10 ADD CALLDATALOAD SWAP4 POP PUSH1 0xA0 DUP10 ADD CALLDATALOAD PUSH1 0xFF DUP2 AND DUP2 EQ PUSH2 0x1FCB JUMPI DUP4 DUP5 REVERT JUMPDEST SWAP8 SWAP11 SWAP7 SWAP10 POP SWAP5 SWAP8 SWAP4 SWAP7 SWAP3 SWAP6 SWAP3 SWAP5 POP POP POP PUSH1 0xC0 DUP3 ADD CALLDATALOAD SWAP2 PUSH1 0xE0 ADD CALLDATALOAD SWAP1 JUMP JUMPDEST PUSH1 0x0 PUSH1 0x20 DUP3 DUP5 SUB SLT ISZERO PUSH2 0x1FF9 JUMPI DUP1 DUP2 REVERT JUMPDEST DUP2 MLOAD PUSH1 0x1 PUSH1 0x1 PUSH1 0x40 SHL SUB DUP1 DUP3 GT ISZERO PUSH2 0x200F JUMPI DUP3 DUP4 REVERT JUMPDEST DUP2 DUP5 ADD SWAP2 POP DUP5 PUSH1 0x1F DUP4 ADD SLT PUSH2 0x2022 JUMPI DUP3 DUP4 REVERT JUMPDEST DUP2 MLOAD DUP2 DUP2 GT ISZERO PUSH2 0x2030 JUMPI DUP4 DUP5 REVERT JUMPDEST PUSH2 0x2043 PUSH1 0x1F DUP3 ADD PUSH1 0x1F NOT AND PUSH1 0x20 ADD PUSH2 0x2772 JUMP JUMPDEST SWAP2 POP DUP1 DUP3 MSTORE DUP6 PUSH1 0x20 DUP3 DUP6 ADD ADD GT ISZERO PUSH2 0x2059 JUMPI DUP4 DUP5 REVERT JUMPDEST PUSH2 0x206A DUP2 PUSH1 0x20 DUP5 ADD PUSH1 0x20 DUP7 ADD PUSH2 0x2798 JUMP JUMPDEST POP SWAP5 SWAP4 POP POP POP POP JUMP JUMPDEST PUSH1 0x0 PUSH1 0x80 DUP3 DUP5 SUB SLT ISZERO PUSH2 0x2084 JUMPI DUP1 DUP2 REVERT JUMPDEST PUSH2 0x208E PUSH1 0x80 PUSH2 0x2772 JUMP JUMPDEST DUP3 MLOAD PUSH2 0x2099 DUP2 PUSH2 0x27C4 JUMP JUMPDEST DUP1 DUP3 MSTORE POP PUSH1 0x20 DUP4 ADD MLOAD PUSH1 0x20 DUP3 ADD MSTORE PUSH1 0x40 DUP4 ADD MLOAD PUSH1 0x40 DUP3 ADD MSTORE PUSH1 0x60 DUP4 ADD MLOAD PUSH1 0x60 DUP3 ADD MSTORE DUP1 SWAP2 POP POP SWAP3 SWAP2 POP POP JUMP JUMPDEST PUSH1 0x0 PUSH1 0x20 DUP3 DUP5 SUB SLT ISZERO PUSH2 0x20D6 JUMPI DUP1 DUP2 REVERT JUMPDEST POP CALLDATALOAD SWAP2 SWAP1 POP JUMP JUMPDEST PUSH1 0x0 PUSH1 0x20 DUP3 DUP5 SUB SLT ISZERO PUSH2 0x20EE JUMPI DUP1 DUP2 REVERT JUMPDEST POP MLOAD SWAP2 SWAP1 POP JUMP JUMPDEST PUSH1 0x0 DUP1 PUSH1 0x40 DUP4 DUP6 SUB SLT ISZERO PUSH2 0x2107 JUMPI DUP2 DUP3 REVERT JUMPDEST DUP3 CALLDATALOAD SWAP2 POP PUSH1 0x20 DUP4 ADD CALLDATALOAD PUSH2 0x2119 DUP2 PUSH2 0x27C4 JUMP JUMPDEST DUP1 SWAP2 POP POP SWAP3 POP SWAP3 SWAP1 POP JUMP JUMPDEST PUSH1 0x0 DUP1 PUSH1 0x0 PUSH1 0x60 DUP5 DUP7 SUB SLT ISZERO PUSH2 0x2138 JUMPI DUP1 DUP2 REVERT JUMPDEST DUP4 CALLDATALOAD SWAP3 POP PUSH1 0x20 DUP5 ADD CALLDATALOAD PUSH2 0x214A DUP2 PUSH2 0x27C4 JUMP JUMPDEST SWAP2 POP PUSH1 0x40 DUP5 ADD CALLDATALOAD PUSH2 0x1E96 DUP2 PUSH2 0x27C4 JUMP JUMPDEST PUSH1 0x0 DUP1 PUSH1 0x0 PUSH1 0x60 DUP5 DUP7 SUB SLT ISZERO PUSH2 0x216E JUMPI DUP1 DUP2 REVERT JUMPDEST DUP4 CALLDATALOAD SWAP3 POP PUSH1 0x20 DUP5 ADD CALLDATALOAD SWAP2 POP PUSH1 0x40 DUP5 ADD CALLDATALOAD PUSH2 0x1E96 DUP2 PUSH2 0x27C4 JUMP JUMPDEST PUSH1 0x0 DUP1 PUSH1 0x0 DUP1 PUSH1 0x80 DUP6 DUP8 SUB SLT ISZERO PUSH2 0x219C JUMPI DUP2 DUP3 REVERT JUMPDEST DUP5 CALLDATALOAD SWAP4 POP PUSH1 0x20 DUP6 ADD CALLDATALOAD SWAP3 POP PUSH1 0x40 DUP6 ADD CALLDATALOAD PUSH2 0x21B5 DUP2 PUSH2 0x27C4 JUMP JUMPDEST SWAP2 POP PUSH1 0x60 DUP6 ADD CALLDATALOAD PUSH2 0x21C5 DUP2 PUSH2 0x27DC JUMP JUMPDEST SWAP4 SWAP7 SWAP3 SWAP6 POP SWAP1 SWAP4 POP POP JUMP JUMPDEST PUSH1 0x0 DUP2 MLOAD DUP1 DUP5 MSTORE PUSH2 0x21E8 DUP2 PUSH1 0x20 DUP7 ADD PUSH1 0x20 DUP7 ADD PUSH2 0x2798 JUMP JUMPDEST PUSH1 0x1F ADD PUSH1 0x1F NOT AND SWAP3 SWAP1 SWAP3 ADD PUSH1 0x20 ADD SWAP3 SWAP2 POP POP JUMP JUMPDEST PUSH1 0x0 DUP3 DUP5 DUP4 CALLDATACOPY SWAP2 ADD SWAP1 DUP2 MSTORE SWAP2 SWAP1 POP JUMP JUMPDEST PUSH1 0x0 DUP3 MLOAD PUSH2 0x221E DUP2 DUP5 PUSH1 0x20 DUP8 ADD PUSH2 0x2798 JUMP JUMPDEST SWAP2 SWAP1 SWAP2 ADD SWAP3 SWAP2 POP POP JUMP JUMPDEST PUSH1 0x1 PUSH1 0x1 PUSH1 0xA0 SHL SUB SWAP2 SWAP1 SWAP2 AND DUP2 MSTORE PUSH1 0x20 ADD SWAP1 JUMP JUMPDEST PUSH1 0x1 PUSH1 0x1 PUSH1 0xA0 SHL SUB SWAP4 DUP5 AND DUP2 MSTORE SWAP2 SWAP1 SWAP3 AND PUSH1 0x20 DUP3 ADD MSTORE PUSH1 0x40 DUP2 ADD SWAP2 SWAP1 SWAP2 MSTORE PUSH1 0x60 ADD SWAP1 JUMP JUMPDEST PUSH1 0x1 PUSH1 0x1 PUSH1 0xA0 SHL SUB SWAP8 DUP9 AND DUP2 MSTORE SWAP6 SWAP1 SWAP7 AND PUSH1 0x20 DUP7 ADD MSTORE PUSH1 0x40 DUP6 ADD SWAP4 SWAP1 SWAP4 MSTORE PUSH1 0x60 DUP5 ADD SWAP2 SWAP1 SWAP2 MSTORE PUSH1 0xFF AND PUSH1 0x80 DUP4 ADD MSTORE PUSH1 0xA0 DUP3 ADD MSTORE PUSH1 0xC0 DUP2 ADD SWAP2 SWAP1 SWAP2 MSTORE PUSH1 0xE0 ADD SWAP1 JUMP JUMPDEST PUSH1 0x1 PUSH1 0x1 PUSH1 0xA0 SHL SUB SWAP3 SWAP1 SWAP3 AND DUP3 MSTORE PUSH1 0x20 DUP3 ADD MSTORE PUSH1 0x40 ADD SWAP1 JUMP JUMPDEST PUSH1 0x40 DUP1 DUP3 MSTORE DUP4 MLOAD SWAP1 DUP3 ADD DUP2 SWAP1 MSTORE PUSH1 0x0 SWAP1 PUSH1 0x20 SWAP1 PUSH1 0x60 DUP5 ADD SWAP1 DUP3 DUP8 ADD DUP5 JUMPDEST DUP3 DUP2 LT ISZERO PUSH2 0x22F5 JUMPI DUP2 MLOAD ISZERO ISZERO DUP5 MSTORE SWAP3 DUP5 ADD SWAP3 SWAP1 DUP5 ADD SWAP1 PUSH1 0x1 ADD PUSH2 0x22D7 JUMP JUMPDEST POP POP POP DUP4 DUP2 SUB DUP3 DUP6 ADD MSTORE DUP1 DUP6 MLOAD PUSH2 0x230C DUP2 DUP5 PUSH2 0x26BE JUMP JUMPDEST SWAP2 POP DUP2 SWAP3 POP DUP4 DUP2 MUL DUP3 ADD DUP5 DUP9 ADD DUP7 JUMPDEST DUP4 DUP2 LT ISZERO PUSH2 0x2345 JUMPI DUP6 DUP4 SUB DUP6 MSTORE PUSH2 0x2333 DUP4 DUP4 MLOAD PUSH2 0x21D0 JUMP JUMPDEST SWAP5 DUP8 ADD SWAP5 SWAP3 POP SWAP1 DUP7 ADD SWAP1 PUSH1 0x1 ADD PUSH2 0x231B JUMP JUMPDEST POP SWAP1 SWAP10 SWAP9 POP POP POP POP POP POP POP POP POP JUMP JUMPDEST SWAP1 ISZERO ISZERO DUP2 MSTORE PUSH1 0x20 ADD SWAP1 JUMP JUMPDEST PUSH1 0x0 PUSH1 0x20 DUP3 MSTORE PUSH2 0x1A76 PUSH1 0x20 DUP4 ADD DUP5 PUSH2 0x21D0 JUMP JUMPDEST PUSH1 0x20 DUP1 DUP3 MSTORE PUSH1 0x15 SWAP1 DUP3 ADD MSTORE PUSH21 0x426F72696E674D6174683A20556E646572666C6F77 PUSH1 0x58 SHL PUSH1 0x40 DUP3 ADD MSTORE PUSH1 0x60 ADD SWAP1 JUMP JUMPDEST PUSH1 0x20 DUP1 DUP3 MSTORE PUSH1 0xB SWAP1 DUP3 ADD MSTORE PUSH11 0x496E7465676572203C203 PUSH1 0xAC SHL PUSH1 0x40 DUP3 ADD MSTORE PUSH1 0x60 ADD SWAP1 JUMP JUMPDEST PUSH1 0x20 DUP1 DUP3 MSTORE PUSH1 0x1C SWAP1 DUP3 ADD MSTORE PUSH32 0x426F72696E6745524332303A205472616E73666572206661696C656400000000 PUSH1 0x40 DUP3 ADD MSTORE PUSH1 0x60 ADD SWAP1 JUMP JUMPDEST PUSH1 0x20 DUP1 DUP3 MSTORE PUSH1 0x15 SWAP1 DUP3 ADD MSTORE PUSH21 0x42616C616E6365206D75737420657863656564203 PUSH1 0x5C SHL PUSH1 0x40 DUP3 ADD MSTORE PUSH1 0x60 ADD SWAP1 JUMP JUMPDEST PUSH1 0x20 DUP1 DUP3 MSTORE PUSH1 0x21 SWAP1 DUP3 ADD MSTORE PUSH32 0x5369676E6564536166654D6174683A206164646974696F6E206F766572666C6F PUSH1 0x40 DUP3 ADD MSTORE PUSH1 0x77 PUSH1 0xF8 SHL PUSH1 0x60 DUP3 ADD MSTORE PUSH1 0x80 ADD SWAP1 JUMP JUMPDEST PUSH1 0x20 DUP1 DUP3 MSTORE PUSH1 0x15 SWAP1 DUP3 ADD MSTORE PUSH21 0x4F776E61626C653A207A65726F2061646472657373 PUSH1 0x58 SHL PUSH1 0x40 DUP3 ADD MSTORE PUSH1 0x60 ADD SWAP1 JUMP JUMPDEST PUSH1 0x20 DUP1 DUP3 MSTORE PUSH1 0x1C SWAP1 DUP3 ADD MSTORE PUSH32 0x426F72696E674D6174683A2075696E74313238204F766572666C6F7700000000 PUSH1 0x40 DUP3 ADD MSTORE PUSH1 0x60 ADD SWAP1 JUMP JUMPDEST PUSH1 0x20 DUP1 DUP3 MSTORE PUSH1 0x18 SWAP1 DUP3 ADD MSTORE PUSH32 0x426F72696E674D6174683A20416464204F766572666C6F770000000000000000 PUSH1 0x40 DUP3 ADD MSTORE PUSH1 0x60 ADD SWAP1 JUMP JUMPDEST PUSH1 0x20 DUP1 DUP3 MSTORE DUP2 DUP2 ADD MSTORE PUSH32 0x4F776E61626C653A2063616C6C6572206973206E6F7420746865206F776E6572 PUSH1 0x40 DUP3 ADD MSTORE PUSH1 0x60 ADD SWAP1 JUMP JUMPDEST PUSH1 0x20 DUP1 DUP3 MSTORE DUP2 DUP2 ADD MSTORE PUSH32 0x4F776E61626C653A2063616C6C657220213D2070656E64696E67206F776E6572 PUSH1 0x40 DUP3 ADD MSTORE PUSH1 0x60 ADD SWAP1 JUMP JUMPDEST PUSH1 0x20 DUP1 DUP3 MSTORE PUSH1 0x1B SWAP1 DUP3 ADD MSTORE PUSH32 0x426F72696E674D6174683A2075696E743634204F766572666C6F770000000000 PUSH1 0x40 DUP3 ADD MSTORE PUSH1 0x60 ADD SWAP1 JUMP JUMPDEST PUSH1 0x20 DUP1 DUP3 MSTORE PUSH1 0x24 SWAP1 DUP3 ADD MSTORE PUSH32 0x5369676E6564536166654D6174683A207375627472616374696F6E206F766572 PUSH1 0x40 DUP3 ADD MSTORE PUSH4 0x666C6F77 PUSH1 0xE0 SHL PUSH1 0x60 DUP3 ADD MSTORE PUSH1 0x80 ADD SWAP1 JUMP JUMPDEST PUSH1 0x20 DUP1 DUP3 MSTORE DUP2 DUP2 ADD MSTORE PUSH32 0x426F72696E6745524332303A205472616E7366657246726F6D206661696C6564 PUSH1 0x40 DUP3 ADD MSTORE PUSH1 0x60 ADD SWAP1 JUMP JUMPDEST PUSH1 0x20 DUP1 DUP3 MSTORE PUSH1 0x18 SWAP1 DUP3 ADD MSTORE PUSH32 0x426F72696E674D6174683A204D756C204F766572666C6F770000000000000000 PUSH1 0x40 DUP3 ADD MSTORE PUSH1 0x60 ADD SWAP1 JUMP JUMPDEST DUP2 MLOAD PUSH1 0x1 PUSH1 0x1 PUSH1 0x80 SHL SUB AND DUP2 MSTORE PUSH1 0x20 DUP1 DUP4 ADD MLOAD PUSH1 0x1 PUSH1 0x1 PUSH1 0x40 SHL SUB SWAP1 DUP2 AND SWAP2 DUP4 ADD SWAP2 SWAP1 SWAP2 MSTORE PUSH1 0x40 SWAP3 DUP4 ADD MLOAD AND SWAP2 DUP2 ADD SWAP2 SWAP1 SWAP2 MSTORE PUSH1 0x60 ADD SWAP1 JUMP JUMPDEST PUSH1 0x1 PUSH1 0x1 PUSH1 0x80 SHL SUB SWAP4 SWAP1 SWAP4 AND DUP4 MSTORE PUSH1 0x1 PUSH1 0x1 PUSH1 0x40 SHL SUB SWAP2 DUP3 AND PUSH1 0x20 DUP5 ADD MSTORE AND PUSH1 0x40 DUP3 ADD MSTORE PUSH1 0x60 ADD SWAP1 JUMP JUMPDEST SWAP1 DUP2 MSTORE PUSH1 0x20 ADD SWAP1 JUMP JUMPDEST SWAP3 DUP4 MSTORE PUSH1 0x1 PUSH1 0x1 PUSH1 0xA0 SHL SUB SWAP2 SWAP1 SWAP2 AND PUSH1 0x20 DUP4 ADD MSTORE PUSH1 0x40 DUP3 ADD MSTORE PUSH1 0x60 ADD SWAP1 JUMP JUMPDEST SWAP2 DUP3 MSTORE ISZERO ISZERO PUSH1 0x20 DUP3 ADD MSTORE PUSH1 0x40 ADD SWAP1 JUMP JUMPDEST SWAP2 DUP3 MSTORE PUSH1 0x20 DUP3 ADD MSTORE PUSH1 0x40 ADD SWAP1 JUMP JUMPDEST PUSH1 0x1 PUSH1 0x1 PUSH1 0x40 SHL SUB SWAP4 SWAP1 SWAP4 AND DUP4 MSTORE PUSH1 0x20 DUP4 ADD SWAP2 SWAP1 SWAP2 MSTORE PUSH1 0x1 PUSH1 0x1 PUSH1 0x80 SHL SUB AND PUSH1 0x40 DUP3 ADD MSTORE PUSH1 0x60 ADD SWAP1 JUMP JUMPDEST PUSH1 0x0 DUP1 DUP4 CALLDATALOAD PUSH1 0x1E NOT DUP5 CALLDATASIZE SUB ADD DUP2 SLT PUSH2 0x2744 JUMPI DUP3 DUP4 REVERT JUMPDEST DUP4 ADD DUP1 CALLDATALOAD SWAP2 POP PUSH1 0x1 PUSH1 0x1 PUSH1 0x40 SHL SUB DUP3 GT ISZERO PUSH2 0x275D JUMPI DUP3 DUP4 REVERT JUMPDEST PUSH1 0x20 ADD SWAP2 POP CALLDATASIZE DUP2 SWAP1 SUB DUP3 SGT ISZERO PUSH2 0x1E50 JUMPI PUSH1 0x0 DUP1 REVERT JUMPDEST PUSH1 0x40 MLOAD DUP2 DUP2 ADD PUSH1 0x1 PUSH1 0x1 PUSH1 0x40 SHL SUB DUP2 GT DUP3 DUP3 LT OR ISZERO PUSH2 0x2790 JUMPI PUSH1 0x0 DUP1 REVERT JUMPDEST PUSH1 0x40 MSTORE SWAP2 SWAP1 POP JUMP JUMPDEST PUSH1 0x0 JUMPDEST DUP4 DUP2 LT ISZERO PUSH2 0x27B3 JUMPI DUP2 DUP2 ADD MLOAD DUP4 DUP3 ADD MSTORE PUSH1 0x20 ADD PUSH2 0x279B JUMP JUMPDEST DUP4 DUP2 GT ISZERO PUSH2 0xEBB JUMPI POP POP PUSH1 0x0 SWAP2 ADD MSTORE JUMP JUMPDEST PUSH1 0x1 PUSH1 0x1 PUSH1 0xA0 SHL SUB DUP2 AND DUP2 EQ PUSH2 0x27D9 JUMPI PUSH1 0x0 DUP1 REVERT JUMPDEST POP JUMP JUMPDEST DUP1 ISZERO ISZERO DUP2 EQ PUSH2 0x27D9 JUMPI PUSH1 0x0 DUP1 REVERT INVALID LOG2 PUSH5 0x6970667358 0x22 SLT KECCAK256 MOD 0xEE 0xC5 0xE2 0xB1 DUP8 PUSH19 0xF9258371864B8F0D18D84F299CAE899A09C326 PUSH27 0xD3412256A464736F6C634300060C00330000000000000000000000 "
        },
        "gasEstimates": {
          "creation": {
            "codeDepositCost": "2054400",
            "executionCost": "infinite",
            "totalCost": "infinite"
          },
          "external": {
            "MASTER_CHEF()": "infinite",
            "MASTER_PID()": "infinite",
            "SUSHI()": "infinite",
            "add(uint256,address,address)": "infinite",
            "batch(bytes[],bool)": "infinite",
            "claimOwnership()": "45112",
            "deposit(uint256,uint256,address)": "infinite",
            "emergencyWithdraw(uint256,address)": "infinite",
            "harvest(uint256,address)": "infinite",
            "harvestFromMasterChef()": "infinite",
            "init(address)": "infinite",
            "lpToken(uint256)": "2061",
            "massUpdatePools(uint256[])": "infinite",
            "owner()": "1159",
            "pendingOwner()": "1158",
            "pendingSushi(uint256,address)": "infinite",
            "permitToken(address,address,address,uint256,uint256,uint8,bytes32,bytes32)": "infinite",
            "poolInfo(uint256)": "2255",
            "poolLength()": "1074",
            "rewarder(uint256)": "2082",
            "set(uint256,uint256,address,bool)": "infinite",
            "sushiPerBlock()": "infinite",
            "transferOwnership(address,bool,bool)": "infinite",
            "updatePool(uint256)": "infinite",
            "userInfo(uint256,address)": "2315",
            "withdraw(uint256,uint256,address)": "infinite"
          }
        },
        "methodIdentifiers": {
          "MASTER_CHEF()": "edd8b170",
          "MASTER_PID()": "61621aaa",
          "SUSHI()": "ab560e10",
          "add(uint256,address,address)": "ab7de098",
          "batch(bytes[],bool)": "d2423b51",
          "claimOwnership()": "4e71e0c8",
          "deposit(uint256,uint256,address)": "8dbdbe6d",
          "emergencyWithdraw(uint256,address)": "2f940c70",
          "harvest(uint256,address)": "18fccc76",
          "harvestFromMasterChef()": "4f70b15a",
          "init(address)": "19ab453c",
          "lpToken(uint256)": "78ed5d1f",
          "massUpdatePools(uint256[])": "57a5b58c",
          "owner()": "8da5cb5b",
          "pendingOwner()": "e30c3978",
          "pendingSushi(uint256,address)": "195426ec",
          "permitToken(address,address,address,uint256,uint256,uint8,bytes32,bytes32)": "7c516e94",
          "poolInfo(uint256)": "1526fe27",
          "poolLength()": "081e3eda",
          "rewarder(uint256)": "c346253d",
          "set(uint256,uint256,address,bool)": "88bba42f",
          "sushiPerBlock()": "b0bcf42a",
          "transferOwnership(address,bool,bool)": "078dfbe7",
          "updatePool(uint256)": "51eb05a6",
          "userInfo(uint256,address)": "93f1a40b",
          "withdraw(uint256,uint256,address)": "0ad58d2f"
        }
      },
      "storageLayout": {
        "storage": [
          {
            "astId": 149,
            "contract": "contracts/MasterChefV2.sol:MasterChefV2",
            "label": "owner",
            "offset": 0,
            "slot": "0",
            "type": "t_address"
          },
          {
            "astId": 151,
            "contract": "contracts/MasterChefV2.sol:MasterChefV2",
            "label": "pendingOwner",
            "offset": 0,
            "slot": "1",
            "type": "t_address"
          },
          {
            "astId": 892,
            "contract": "contracts/MasterChefV2.sol:MasterChefV2",
            "label": "poolInfo",
            "offset": 0,
            "slot": "2",
            "type": "t_array(t_struct(PoolInfo)879_storage)dyn_storage"
          },
          {
            "astId": 896,
            "contract": "contracts/MasterChefV2.sol:MasterChefV2",
            "label": "lpToken",
            "offset": 0,
            "slot": "3",
            "type": "t_array(t_contract(IERC20)337)dyn_storage"
          },
          {
            "astId": 900,
            "contract": "contracts/MasterChefV2.sol:MasterChefV2",
            "label": "rewarder",
            "offset": 0,
            "slot": "4",
            "type": "t_array(t_contract(IRewarder)1863)dyn_storage"
          },
          {
            "astId": 907,
            "contract": "contracts/MasterChefV2.sol:MasterChefV2",
            "label": "userInfo",
            "offset": 0,
            "slot": "5",
            "type": "t_mapping(t_uint256,t_mapping(t_address,t_struct(UserInfo)872_storage))"
          },
          {
            "astId": 910,
            "contract": "contracts/MasterChefV2.sol:MasterChefV2",
            "label": "totalAllocPoint",
            "offset": 0,
            "slot": "6",
            "type": "t_uint256"
          }
        ],
        "types": {
          "t_address": {
            "encoding": "inplace",
            "label": "address",
            "numberOfBytes": "20"
          },
          "t_array(t_contract(IERC20)337)dyn_storage": {
            "base": "t_contract(IERC20)337",
            "encoding": "dynamic_array",
            "label": "contract IERC20[]",
            "numberOfBytes": "32"
          },
          "t_array(t_contract(IRewarder)1863)dyn_storage": {
            "base": "t_contract(IRewarder)1863",
            "encoding": "dynamic_array",
            "label": "contract IRewarder[]",
            "numberOfBytes": "32"
          },
          "t_array(t_struct(PoolInfo)879_storage)dyn_storage": {
            "base": "t_struct(PoolInfo)879_storage",
            "encoding": "dynamic_array",
            "label": "struct MasterChefV2.PoolInfo[]",
            "numberOfBytes": "32"
          },
          "t_contract(IERC20)337": {
            "encoding": "inplace",
            "label": "contract IERC20",
            "numberOfBytes": "20"
          },
          "t_contract(IRewarder)1863": {
            "encoding": "inplace",
            "label": "contract IRewarder",
            "numberOfBytes": "20"
          },
          "t_int256": {
            "encoding": "inplace",
            "label": "int256",
            "numberOfBytes": "32"
          },
          "t_mapping(t_address,t_struct(UserInfo)872_storage)": {
            "encoding": "mapping",
            "key": "t_address",
            "label": "mapping(address => struct MasterChefV2.UserInfo)",
            "numberOfBytes": "32",
            "value": "t_struct(UserInfo)872_storage"
          },
          "t_mapping(t_uint256,t_mapping(t_address,t_struct(UserInfo)872_storage))": {
            "encoding": "mapping",
            "key": "t_uint256",
            "label": "mapping(uint256 => mapping(address => struct MasterChefV2.UserInfo))",
            "numberOfBytes": "32",
            "value": "t_mapping(t_address,t_struct(UserInfo)872_storage)"
          },
          "t_struct(PoolInfo)879_storage": {
            "encoding": "inplace",
            "label": "struct MasterChefV2.PoolInfo",
            "members": [
              {
                "astId": 874,
                "contract": "contracts/MasterChefV2.sol:MasterChefV2",
                "label": "accSushiPerShare",
                "offset": 0,
                "slot": "0",
                "type": "t_uint128"
              },
              {
                "astId": 876,
                "contract": "contracts/MasterChefV2.sol:MasterChefV2",
                "label": "lastRewardBlock",
                "offset": 16,
                "slot": "0",
                "type": "t_uint64"
              },
              {
                "astId": 878,
                "contract": "contracts/MasterChefV2.sol:MasterChefV2",
                "label": "allocPoint",
                "offset": 24,
                "slot": "0",
                "type": "t_uint64"
              }
            ],
            "numberOfBytes": "32"
          },
          "t_struct(UserInfo)872_storage": {
            "encoding": "inplace",
            "label": "struct MasterChefV2.UserInfo",
            "members": [
              {
                "astId": 869,
                "contract": "contracts/MasterChefV2.sol:MasterChefV2",
                "label": "amount",
                "offset": 0,
                "slot": "0",
                "type": "t_uint256"
              },
              {
                "astId": 871,
                "contract": "contracts/MasterChefV2.sol:MasterChefV2",
                "label": "rewardDebt",
                "offset": 0,
                "slot": "1",
                "type": "t_int256"
              }
            ],
            "numberOfBytes": "64"
          },
          "t_uint128": {
            "encoding": "inplace",
            "label": "uint128",
            "numberOfBytes": "16"
          },
          "t_uint256": {
            "encoding": "inplace",
            "label": "uint256",
            "numberOfBytes": "32"
          },
          "t_uint64": {
            "encoding": "inplace",
            "label": "uint64",
            "numberOfBytes": "8"
          }
        }
      },
      "userdoc": {
        "kind": "user",
        "methods": {
          "MASTER_CHEF()": {
            "notice": "Address of MCV1 contract."
          },
          "MASTER_PID()": {
            "notice": "The index of MCV2 master pool in MCV1."
          },
          "SUSHI()": {
            "notice": "Address of SUSHI contract."
          },
          "add(uint256,address,address)": {
            "notice": "Add a new LP to the pool. Can only be called by the owner. DO NOT add the same LP token more than once. Rewards will be messed up if you do."
          },
          "deposit(uint256,uint256,address)": {
            "notice": "Deposit LP tokens to MCV2 for SUSHI allocation."
          },
          "emergencyWithdraw(uint256,address)": {
            "notice": "Withdraw without caring about rewards. EMERGENCY ONLY."
          },
          "harvest(uint256,address)": {
            "notice": "Harvest proceeds for transaction sender to `to`."
          },
          "harvestFromMasterChef()": {
            "notice": "Harvests SUSHI from `MASTER_CHEF` MCV1 and pool `MASTER_PID` to this MCV2 contract."
          },
          "init(address)": {
            "notice": "Deposits a dummy token to `MASTER_CHEF` MCV1. This is required because MCV1 holds the minting rights for SUSHI. Any balance of transaction sender in `dummyToken` is transferred. The allocation point for the pool on MCV1 is the total allocation point for all pools that receive double incentives."
          },
          "lpToken(uint256)": {
            "notice": "Address of the LP token for each MCV2 pool."
          },
          "massUpdatePools(uint256[])": {
            "notice": "Update reward variables for all pools. Be careful of gas spending!"
          },
          "pendingSushi(uint256,address)": {
            "notice": "View function to see pending SUSHI on frontend."
          },
          "poolInfo(uint256)": {
            "notice": "Info of each MCV2 pool."
          },
          "poolLength()": {
            "notice": "Returns the number of MCV2 pools."
          },
          "rewarder(uint256)": {
            "notice": "Address of each `IRewarder` contract in MCV2."
          },
          "set(uint256,uint256,address,bool)": {
            "notice": "Update the given pool's SUSHI allocation point and `IRewarder` contract. Can only be called by the owner."
          },
          "sushiPerBlock()": {
            "notice": "Calculates and returns the `amount` of SUSHI per block."
          },
          "updatePool(uint256)": {
            "notice": "Update reward variables of the given pool."
          },
          "userInfo(uint256,address)": {
            "notice": "Info of each user that stakes LP tokens."
          },
          "withdraw(uint256,uint256,address)": {
            "notice": "Withdraw LP tokens from MCV2."
          }
        },
        "notice": "The (older) MasterChef contract gives out a constant number of SUSHI tokens per block. It is the only address with minting rights for SUSHI. The idea for this MasterChef V2 (MCV2) contract is therefore to be the owner of a dummy token that is deposited into the MasterChef V1 (MCV1) contract. The allocation point for this pool on MCV1 is the total allocation point for all pools that receive double incentives.",
        "version": 1
      }
    }
  }
}